:020000040800F2
:100000001015002099010008271C0008C51A0008D7
:10001000251C000817050008D91F00080000000073
:1000200000000000000000000000000001010008C6
:100030000D0700080000000045010008411C0008F1
:10004000B3010008B3010008B3010008B3010008C0
:10005000B3010008B3010008B3010008B3010008B0
:10006000B3010008B3010008B3010008010700084C
:10007000B3010008B3010008B3010008B301000890
:10008000B3010008B3010008B3010008B301000880
:10009000B3010008B3010008B3010008B301000870
:1000A000B3010008B3010008B3010008B301000860
:1000B000B3010008B3010008F91C0008B3010008EF
:1000C000B3010008B3010008B3010008B301000840
:1000D000B3010008B3010008B3010008B301000830
:1000E000B3010008B3010008B3010008DFF80CD029
:1000F00000F0D4F90048004719200008101500202E
:10010000224B19680868B0E8F00F80F30988BFF344
:100110006F8F4FF0000080F311884EF00D0E704786
:100120000000000006480068006880F3088862B696
:1001300061B6BFF34F8FBFF36F8F00DF00BF00BF0B
:1001400008ED00E0EFF30980BFF36F8F0F4B1A68E3
:1001500020E9F00F106008B54FF0500080F31188CF
:10016000BFF34F8FBFF36F8F02F028FB4FF00000FB
:1001700080F31188BDE8084019680868B0E8F00FFE
:1001800080F30988BFF36F8F704700BF1400002011
:10019000EFF3058070470000064880470648004797
:1001A000FEE7FEE7FEE7FEE7FEE7FEE7FEE7FEE727
:1001B000FEE7FEE7C11C0008ED000008202A04DB72
:1001C000203A21FA02F00021704721FA02F3D040D0
:1001D000C2F12002914008431946704740EA0103EA
:1001E0009B0703D009E008C9121F08C0042AFAD2ED
:1001F00003E011F8013B00F8013B521EF9D27047B1
:10020000D2B201E000F8012B491EFBD27047002258
:10021000F6E710B513460A4604461946FFF7F0FF05
:10022000204610BD2DE9F04D81EA030404F0004B97
:1002300021F0004514464FF0000A23F0004150EA37
:10024000050220D054EA01021DD0C5F30A57024628
:10025000C5F31303C1F31300C1F30A5640F480152C
:1002600043F48013A7EB0608101BD64608F2FD38AE
:1002700073EB050002D308F1010801E092185B411D
:10028000B8F1000F03DA00200146BDE8F08D002030
:100290004FF48011064684460EE0171B73EB0507EA
:1002A00005D3121B63EB050306434CEA010C490816
:1002B0004FEA300092185B4150EA0107EDD152EA53
:1002C000030012D082EA040083EA0501084305D046
:1002D000101BAB4106D20122002306E000224FF0A2
:1002E000004302E06FF0010253101AEB06004CEBE2
:1002F000085110EB0A0041EB0B01BDE8F04D00F096
:100300006FB80EB540F2334102910021CDE90011E2
:100310000A460B4600F073F803B000BD01F000433D
:1003200030B421F0004150EA010206D00A0DA2F5D6
:100330006072C1F31301002A02DC30BC0020704758
:10034000440F44EAC104C100E01830BC00EBC250C5
:1003500000F00FB8202A04DB203A00FA02F1002056
:1003600070479140C2F1200320FA03F319439040F3
:1003700070470029A8BF7047401C490008BF20F003
:100380000100704710B4B0FA80FC00FA0CF050EA9B
:10039000010404BF10BC704749B1CCF1200421FA1C
:1003A00004F411FA0CF118BF012121430843A3EB17
:1003B0000C01CB1D4FEA00614FEA102042BF002024
:1003C00010BC704700EBC35010440029A4BF10BC00
:1003D0007047401C490008BF20F0010010BC704766
:1003E00010B5141E73F1000408DA401C41F100013D
:1003F00092185B411A4301D120F0010010BD2DE994
:10040000F04D92469B4611B1B1FA81F202E0B0FA8A
:1004100080F220329046FFF79DFF04460F4640EAE7
:100420000A0041EA0B0153465A46084313D01146CD
:1004300053EA010019D0C8F140025046FFF7BEFE52
:1004400005460E46504659464246FFF783FF08438D
:1004500005D0012004E020463946BDE8F08D00209B
:10046000054346EAE0762C4337430A986305E40ADD
:10047000A0EB08000022FD0A44EA47540A3002D5E6
:1004800000200146E9E7010510196941DDE9084549
:1004900000196941BDE8F04DA2E70000064C074D88
:1004A00006E0E06840F0010394E807009847103444
:1004B000AC42F6D3FFF71EFE3C2B00085C2B000875
:1004C00070B5044600688168C943C90717D18168BF
:1004D00021F00101816000F03DFC05460AE000BF0B
:1004E00000F038FC401B022804D920688068C04313
:1004F000C00706D020688068C043C007F0D0002045
:1005000070BDA06A40F01000A062E06A40F00100F7
:10051000E062012070BDFEE770B5154E05463068FB
:1005200029780124103104FA01F1084330601420C5
:1005300001F0C6FD4FF0010080F3108831682A7881
:1005400004FA02F0014331600A4800210160084AC0
:10055000083A05E011682B7804FA03F3194202D037
:1005600001683729F6D34FF0000080F3108870BD82
:1005700010080140242C0140F0B503461349002027
:1005800005460860124C01220AE026681F7802FA2C
:1005900007F73E4204D00E68462E01D9401C02E007
:1005A0000E685A2EF1D30D600BE025681E7802FA12
:1005B00006F6354205D10D68462D02D9401CC0B261
:1005C000F0BD0D685F2DF0D3F0BD0000242C01407C
:1005D000080801402DE9FC470446FFF79DFF4FF056
:1005E000010080F310882046FFF7C6FF02283BD1A8
:1005F0000023314D31499946EA46012207204E46F3
:10060000C1F800900AE02F6894F800C002FA0CFCD0
:1006100017EA0C0F02D00F68282F02D80F683C2F62
:10062000F1D30E60164608E0D5F800C094F80080BB
:1006300006FA08F71CEA070F02D00F68502FF3D311
:100640000F681AF803C0322F574602FA00F602D993
:100650004CEA060C01E02CEA060C07F803C0401E29
:10066000CDD55B1C042BC9DB9DF802109DF803005F
:1006700001F07F0100EB0120FFF743FE104D002247
:100680002B46FFF7CFFDFFF749FE60609DF80100A4
:100690009DF8001000EB0120FFF733FE00222B46EF
:1006A000FFF7C0FDFFF73AFEA0604FF0000080F3B7
:1006B0001088BDE8FC87000008080140242C014098
:1006C0000000244070B50F230724072A0CD94E6878
:1006D0006FF01F0505EB8205AB409E434E604B68F3
:1006E000AC4023434B6008E00E689500AB409E434E
:1006F0000E600B68AC4023430B60027070BD0000BD
:10070000014800F059B900003C01002070477047D3
:10071000F8B50024009490F824202546012A12D030
:10072000012280F824204A681F23072A0DD2066878
:10073000776B521E02EB820293409F430B689340FB
:100740001F43776319E00220F8BD06680D2A0AD21C
:10075000376BD21F02EB820293409F430B6893409A
:100760001F43376309E0F76A0D3A02EB82029340B8
:100770009F430B6893401F43F7620A68072306688C
:100780000A2A0AD3F7680A3A02EB420293409F43CF
:100790008B6893401F43F76008E0376902EB420221
:1007A00093409F438B6893401F4337610A68102A28
:1007B00001D0112A20D1124B02689A4217D19368B6
:1007C0001B0219D4936843F400039360096810294D
:1007D00012D10C490C4A0968B1FBF2F101EB81011D
:1007E000490000E0491E00910029FBD104E0816A24
:1007F00041F020018162012480F824502046F8BD98
:10080000002401401000002040420F002DE9F0417B
:100810004FF0000704003D467ED0A06A002628B9AC
:10082000E66284F82460204600F07EF82046FFF758
:1008300047FEA16AC90600D420B1A06A40F01000AA
:10084000A06269E0A16A21F4885141F00201A1622D
:100850006268E169237B0A4347EA43010A43A168CE
:100860004FF48077B94209D0012907D05FF0000129
:1008700094F814C0BCF1010F02D00AE03946F7E742
:10088000F3B1A36A43F02003A362E36A43F00103D8
:10089000E3622368D3F804C02CF4694C4CEA010CE1
:1008A000C3F804C021688B68DFF870C003EA0C034A
:1008B00013438B60A168B9420BD0012909D00CE029
:1008C000DFF85CC0A3690CEB43330B4343F40061D6
:1008D000DFE7218A0D05A5F580152168CB6A23F491
:1008E00070032B43CB62216889680E4B19409142FB
:1008F00008D1E662A16A21F0020141F00101A16282
:10090000BDE8F081A06A20F0020040F01000A06273
:10091000E06A40F00100E0620120F1E7FDF7E1FF4D
:1009200000E0FFFFFE0E1FFF70B586B000250646F3
:10093000009501950295039500681A4988422ED1C9
:100940001949886940F400708861886900F4007072
:100950000490886940F0040088618869694600F065
:100960000400049018200090032001900F4800F02C
:10097000FBF8104C0E48C4E900058020C4E9025081
:1009800040002061800060612020C4E90605204607
:1009900000F0BCF808B1FFF7BAFE3462666206B038
:1009A00070BD00000024014000100240000801401A
:1009B000080002403C0100202DE9F05FC16B0C688B
:1009C00001680B68D0F840C0042202FA0CF2494DCD
:1009D000DFF824A1494E4A4FDFF828B1DFF828E1BB
:1009E00022422CD05A072AD50A68920603D40A68F4
:1009F00022F004020A600168A94201D1042219E030
:100A0000514501D1402215E0B14202D14FF480623C
:100A100010E0B94202D14FF480420BE0594502D1B7
:100A20004FF4802206E0714502D14FF4800201E0CC
:100A30004FF080622F4908394A60C16A3BE04FF0AD
:100A4000020808FA0CF818EA040F4FF000094FF0FA
:100A5000010235D05FEA837832D50B689B0605D456
:100A60000B6823F00A030B6080F821200168A9427B
:100A700001D1022219E0514501D1202215E0B142F5
:100A800002D14FF4007210E0B94202D14FF400528B
:100A90000BE0594502D14FF4003206E0714502D116
:100AA0004FF4001201E04FF00072124908394A6019
:100AB00080F82090816A00291AD0BDE8F05F0847CD
:100AC000082505FA0CF5254212D01B0710D50B6836
:100AD00023F00E030B6090F84010C36B02FA01F193
:100AE0005960826380F8212080F82090016BE2E752
:100AF000BDE8F09F080002401C00024030000240A8
:100B000044000240580002406C00024030B528B357
:100B100008C8134914221944B1FBF2F18900C163DA
:100B200010498163022141771A6843F6F0718A43C4
:100B3000D0E900142143D0E902452C432143046944
:100B400021434469214384692143114319600021F1
:100B50004163012242770177084630BD012030BD54
:100B6000F8FFFDBF000002402DE9F84FDFF8B89113
:100B7000002409F1040A0AF1040B23460F270BF1A4
:100B8000040EC9E00125A5402A40AA427DD1674E46
:100B9000D1F804C0ACEB0608B44532D014DCBCF18B
:100BA000030F3AD009DCBCF1000F2AD0BCF1010FD1
:100BB0001CD0BCF1020F31D11DE0BCF1110F17D0D8
:100BC000BCF1120F2AD119E0B8F5881F19D006DC44
:100BD000B8F5803F15D0B8F5801F1FD111E0B8F5EA
:100BE000001F0ED0B8F5041F18D10AE0CB6815E03D
:100BF000CB681B1D12E0CB6808330FE0CB680C33C9
:100C00000CE08B682BB1012B4FF0080303D045613A
:100C100004E0042302E0056100E00023FF2A01D87C
:100C2000064601E000F104064FEA840501D9A5F16A
:100C30002005D6F8008007FA05FC28EA0C0803FA1C
:100C400005F548EA0508C6F800804D68ED0062D554
:100C5000374DAE6946F00106AE61AD6924F003067A
:100C600005F001050095334D06EB050CDCF8085046
:100C7000A607360F07FA06F825EA0805DFF8B88058
:100C8000404503D14FF0000817E044E0DFF8AC80A6
:100C9000404502D14FF001080FE0DFF8A480404545
:100CA00002D14FF0020808E0DFF89880404502D1F9
:100CB0004FF0030801E04FF0040808FA06F848EA8C
:100CC0000508CCF808804D68D9F80060ED034D4662
:100CD00001D5164300E096432E604D68DAF80060B7
:100CE000AD03554601D5164300E096432E604D688E
:100CF000DBF80060ED025D4601D5164300E0964347
:100D00002E604D68DEF80060AD02754601D51643D1
:100D100000E096432E60641C0D682A46E5407FF48F
:100D200031AFBDE8F88F0000000401400000111051
:100D3000001002400000014000080140000C01408A
:100D400000100140001401400AB10161704709041C
:100D5000FBE70000014880687047000004000020A5
:100D600002488168027811448160704704000020C5
:100D7000074810B5016841F010010160032000F040
:100D80008FF8002000F006F800F03EF8002010BDBB
:100D90000020024000B5014687B000221E2000F06E
:100DA0005FF81E2000F04EF81348C16941F00401BD
:100DB000C161C06905A900F004000690684600F012
:100DC0008DF900F0ABF90D490D4AB0FBF1F10D487A
:100DD000491E0260416040F2E7320021C0E9032170
:100DE000816000F0B7FB10B1012007B000BD0548DD
:100DF00000F0F0FBF9E700000010024040420F0055
:100E000000080040D40300200C4808B5816941F077
:100E100001018161816901F001010091C16941F025
:100E20008051C161C06900F0805000900448416861
:100E300021F0E06141F00071416008BD0010024006
:100E400000000140002809DB00F01F020121914051
:100E50004009800000F1E020C0F800117047000058
:100E6000F0B40E4B1B680C46C3F30223C3F1070515
:100E7000042D00D90425191D072901D2002300E003
:100E8000DB1E012606FA05F1491E214099409E40CD
:100E9000761E16403143F0BC01F09FB80CED00E027
:100EA000064900F0070208684FF6FF03184040EAC1
:100EB0000220034A10430860704700000CED00E078
:100EC0000000FA052DE9F84305460078354CC007C7
:100ED00054D0E0690026C00008D4E06940F080509A
:100EE000E061E069012600F0805000902E48016822
:100EF000C90512D40168804641F480710160FFF792
:100F000029FF074605E000BFFFF724FFC01B642848
:100F100023D8D8F80000C005F6D5206A10F4407038
:100F200021D0A98801F4407181421CD0206A1F4958
:100F3000012220F440700A6000220A602062C0078B
:100F400011D0FFF707FF074641F2883808E000BFDD
:100F5000FFF700FFC11B414502D90320BDE8F8831C
:100F6000206A8007F4D5206A696820F4407008433D
:100F700020621EB1E06920F08050E061287880078F
:100F800005D56068A96820F440400843606028786F
:100F9000C00605D56068E96820F4800008436060F9
:100FA0000020DBE700100240007000404004424295
:100FB0002DE9F0470F46050061D0434E306800F040
:100FC0000700B84209D2306820F00700384330608B
:100FD000306800F00700B84251D128683B4C8107C7
:100FE00012D5400703D5606840F4E060606028785F
:100FF000000703D5606840F4605060606068A968CD
:1010000020F0F000084360602878C00728D06868A6
:10101000012810D02168022810D0890700292EDA73
:10102000616821F0030101436160FFF793FE804690
:1010300041F288390DE021688903EFE78901EDE786
:10104000FFF788FEA0EB0801494502D90320BDE85F
:10105000F0876068696800F00C00B0EB810FEFD199
:10106000306800F00700B8420BD9306820F0070064
:1010700038433060306800F00700B84201D00120EA
:10108000E5E72878400705D56068E96820F4E06066
:10109000084360602878000706D56068296920F455
:1010A000605040EAC100606000F058F86168084A8A
:1010B000C1F30311515CC840064908600648006846
:1010C000FFF768FE0020C2E7002002400010024047
:1010D000182B000810000020080000200F220260DA
:1010E0000C4A536803F003034360536803F0F003B2
:1010F0008360536803F4E063C36052684FF4E063B5
:1011000003EAD20202610448006800F007000860A8
:1011100070470000001002400020024004480549CA
:1011200000684968044AC1F30221515CC840704715
:101130001000002000100240282B00080448054938
:1011400000684968044AC1F3C221515CC840704735
:101150001000002000100240282B000812A185B0CA
:101160000FC98DE80F0014A0144A0068049051685C
:10117000134801F00C03042B10D0082B0ED1C1F33F
:101180008343C9031DF803000AD5516804AAC1F3BB
:101190004041515C0A4A5043B0FBF1F005B0704742
:1011A00008494843FAE70000020304050607080956
:1011B0000A0B0C0D0E0F101001020000001002406F
:1011C00000127A0000093D002DE9F84F040070D0AC
:1011D0002078C04DC00749D06868C0F3810001285D
:1011E00007D06868C0F38100022809D16868C0038D
:1011F00006D52868800339D560680028E7D035E037
:101200006068B0F5803F0BD010B1B0F5A02F11D0C1
:10121000286820F480302860286820F4802002E0CC
:10122000286840F480302860606890B1FFF792FD34
:1012300006460AE0286840F480202860F0E700BFF6
:10124000FFF788FD801B642873D828688003F7D5D2
:101250000CE0FFF77FFD064605E000BFFFF77AFDD3
:10126000801B6428F0D828688003F7D420789A4E31
:1012700080074FF001094FF0000839D5686810F079
:101280000C0F07D06868C0F38100022809D1686894
:10129000C00306D42868800714D52069012808D126
:1012A00010E02069B0B1C6F80090FFF753FD074683
:1012B00005E00AE1FFF74EFDC01B0228C4D82868EC
:1012C0008007F7D52868616920F0F80040EAC1007E
:1012D00028600DE0C6F80080FFF73CFD074604E0FB
:1012E000FFF738FDC01B022823D828688007F7D4F1
:1012F000207800072CD57948A169D9B1C0F80090B1
:10130000FFF728FD074604E0FFF724FDC01B022875
:101310000FD8686A8007F7D571484FF4FA51006812
:10132000B0FBF1F0009000BF0098411E0091FAD28E
:101330000EE080E0C0F80080FFF70CFD074604E0F7
:10134000FFF708FDC01B022875D8686A8007F7D42C
:101350002078400760D5E8690027C00008D4E86914
:1013600040F08050E861E869012700F0805000906B
:101370005C480168C90513D40168834641F4807153
:101380000160FFF7E7FC824606E000BFFFF7E2FCE2
:10139000A0EB0A0064284ED8DBF80000C005F5D5A4
:1013A000E06801280AD008B1052813D0286A20F087
:1013B00001002862286A20F0040002E0286A40F058
:1013C00001002862E06841F2883B98B1FFF7C2FC57
:1013D00082460BE0286A40F004002862EEE700BF76
:1013E000FFF7B8FCA0EB0A0159455AD8286A8007D4
:1013F000F6D50CE0FFF7AEFC824605E0FFF7AAFC4D
:10140000A0EB0A0159454CD8286A8007F6D41FB1D1
:10141000E86920F08050E861E06988B36968C1F349
:101420008101022944D00228C6F8608004D0FFF769
:1014300091FC044638E034E0FFF78CFC074604E0FA
:10144000FFF788FCC01B02282BD828688001F7D43E
:10145000206AB0F5803F05D16868A16820F40030AB
:1014600008436860D4E908010843696821F47411ED
:1014700008436860C6F86090FFF76CFC044606E01D
:1014800025E000BFFFF766FC001B022809D828688A
:101490008001F7D51BE000BFFFF75CFC001B0228B2
:1014A00002D90320BDE8F88F28688001F4D40EE04B
:1014B0000128F7D06868226A00F48031914204D193
:1014C000616A00F47010884201D00120EAE7002030
:1014D000E8E700000010024000004242800442425F
:1014E00010000020007000407047704770B590F801
:1014F0003C20012A26D0012480F83C40022280F8BA
:101500003D2003685A689D6822F070060A683243DD
:101510005A600D4B02689A4208D0B2F1804F05D054
:101520000A4B9A4202D00A4B9A4204D1496825F0EC
:1015300080031943916080F83D40002180F83C1001
:10154000084670BD022070BD002C01400004004020
:101550000008004010B5040003D094F83D0010B11D
:1015600007E0012010BD002084F83C00204600F078
:101570001FF8022084F83D00211D206800F0C2FB06
:10158000012084F8460084F83E0084F83F0084F887
:10159000400084F8410084F8420084F8430084F855
:1015A000440084F8450084F83D00002010BD000090
:1015B00008B50068B0F1804F08D10548C16941F015
:1015C0000101C161C06900F00100009008BD000088
:1015D0000010024090F83D10012901D00120704711
:1015E000022180F83D100168CA6842F00102CA6019
:1015F00000680B49884208D0B0F1804F05D00949F6
:10160000884202D00849884204D1816801F007016C
:10161000062903D0016841F00101016000207047F4
:10162000002C0140000400400008004070B5044652
:1016300090F83C00012817D0012584F83C50022086
:1016400084F83D002068826822F0770222F47F420D
:1016500082600868502830D00DDC20284DD005DC91
:1016600098B310283BD148E0022070BD302844D008
:10167000402834D139E0602828D0702806D0B0F551
:10168000805F2CD0B0F5005F29D10AE0CB68D1E9AA
:101690000121206800F06CFB2068816841F077012F
:1016A00009E0CB68D1E90121206800F061FB2068E6
:1016B000816841F48041816011E0CA68496820680E
:1016C00000F00AFC5021206807E016E0CA6849686B
:1016D000206800F012FC6021206800F053FB84F8C1
:1016E0003D50002084F83C0070BDCA6849682068FD
:1016F00000F0F2FB40212068EFE722680146104627
:10170000EBE7704770B50446006801694FF00005CB
:10171000C943890715D4C168C943890711D4E91E93
:10172000016101202077206880698007204602D06F
:10173000FFF7E7FF04E000F0BDF8204600F04CF9A9
:10174000257720680169C943490717D4C168C9438F
:10175000490713D46FF0040101610220207720684B
:10176000806910F4407F204602D0FFF7CAFF04E0F2
:1017700000F0A0F8204600F02FF9257720680169D5
:10178000C943090716D4C168C943090712D46FF0C9
:1017900008010161042020772068C0698007204685
:1017A00002D0FFF7AEFF04E000F084F8204600F01E
:1017B00013F9257720680169C943C90617D4C168A0
:1017C000C943C90613D46FF01001016108202077C6
:1017D0002068C06910F4407F204602D0FFF791FFD7
:1017E00004E000F067F8204600F0F6F8257720685E
:1017F0000169C943C90708D1C168C943C90704D1F0
:10180000891E0161204600F0E9F820680169C9439A
:10181000090609D4C168C943090605D46FF08001DF
:1018200001612046FFF760FE20680169C94349064F
:1018300009D4C168C943490605D46FF0400101616C
:10184000204600F0D5F820680169C94389060BD409
:10185000C168C943890607D46FF0200101612046A1
:10186000BDE87040FFF741BE70BD000000B585B017
:10187000002100910191029103910068B0F1804F25
:1018800011D10A48816941F004018161806969468A
:1018900000F00400049006200090022001900390C4
:1018A0000348FFF761F905B000BD000000100240D9
:1018B00000080140704770B5044690F83C000D46A2
:1018C00001280AD0012084F83C0042B1042A18D033
:1018D000082A2AD00C2A4DD139E0022070BD206898
:1018E00000F058FA2068816941F0080181612068A0
:1018F000816921F004018161206881692A691143AD
:1019000011E0206800F06EFA2068816941F40061FE
:1019100081612068816921F4806181612068816929
:101920002A6941EA0221816124E0206800F086FAF8
:101930002068C16941F00801C1612068C16921F0D6
:101940000401C1612068C1692A69114311E020685E
:1019500000F0A0FA2068C16941F40061C16120680B
:10196000C16921F48061C1612068C1692A6941EAC5
:101970000221C161002084F83C0070BD10B5040054
:1019800003D094F83D0010B107E0012010BD002005
:1019900084F83C00204600F01EF8022084F83D0048
:1019A000211D206800F0AEF9012084F8460084F87B
:1019B0003E0084F83F0084F8400084F8410084F839
:1019C000420084F8430084F8440084F8450084F819
:1019D0003D00002010BD70477047000000680349BB
:1019E000884201D1FFF7BCB97047000000080040F1
:1019F000704770B5040004D094F83D00002510B184
:101A000006E0012070BD84F83C50204600F022F82A
:101A1000242084F83D002068C16821F40051C16091
:101A2000204600F07DFA2068016921F490410161AF
:101A30002068416921F02A0141612068C16841F4B0
:101A40000051C1602564202084F83D0084F83E00E8
:101A5000002070BD30B585B000240094019402943C
:101A6000039400681449884224D11448816941F4E0
:101A700080418161816901F480410491816941F073
:101A80000401816180690E4D00F0040004904FF460
:101A900000700090022001900320039069462846C0
:101AA000FFF762F82815CDE900046946284602943C
:101AB000FFF75AF805B030BD003801400010024071
:101AC00000080140FEE700003EB5002412480094E3
:101AD00001941049029401608915816004730475B2
:101AE000022505614FF460214460C161FEF78EFE5E
:101AF000032000900120CDE9010469460648FEF765
:101B000007FE0420CDE9000569460348FEF700FE04
:101B10003EBD0000002401407400002070B586B076
:101B200000241C480094019402940394816941F0BC
:101B300010018161816901F010010491816941F016
:101B400004018161816901F004010491816941F01E
:101B5000080181618069104E00F008004FF40055C3
:101B60000490002229463046FFF7EEF80220CDE926
:101B7000024000950125694601953046FEF7F4FFC5
:101B800068028DE8310069460448FEF7EDFF06B0B3
:101B900070BD00000010024000100140000C014028
:101BA00010B58EB000240794089409940A940B94FD
:101BB0001C2168460C94FEF72AFB19484FF080411F
:101BC00001600721C0E9011440F2E731C0E90314C4
:101BD0008461FFF7BFFC4FF48050079007A91048BD
:101BE000FFF724FD0E48FFF7C9FE0B940BA90C4824
:101BF0000C94FFF77BFC6020CDE9000402940422E2
:101C0000694607480494FFF756FE082269460448CF
:101C1000FFF751FE0248FFF729FE0EB010BD00008D
:101C2000A4000020FEE770474FF47A740348FEF7E3
:101C3000D1FC204600F05EFDF8E7000030010020F6
:101C400010B5502080F31188BFF34F8FBFF36F8F13
:101C500000F08EFE18B104494FF08050086000205B
:101C600080F3118810BD000004ED00E030B593B0A2
:101C700028216846FEF7CBFA14210AA8FEF7C7FA16
:101C8000002401200F940225049000951020119447
:101C900005901094129407946846FFF795FA0F2068
:101CA000CDE90A040C940D9400210AA80E94FFF7C4
:101CB0007FF90FA80F951194FFF704F913B030BD09
:101CC000704700000A48816941F400618161094957
:101CD00007200860091D4FF6FF70086005490120C4
:101CE00028390860034818380168C907FCD07047D4
:101CF00000100240282C01400148FFF703BD0000FE
:101D0000D4030020F0B50268164B174C174D4FF066
:101D10008047984205D0B84203D0A04201D0A842E3
:101D200003D122F070064A683243984205D0B84287
:101D300003D0A04201D0A84203D122F44074CA6863
:101D400022434C6922F08002224302608A68C26208
:101D50000A688262984201D10969016301214161E7
:101D6000F0BD0000002C01400004004000080040CD
:101D700010B5846842EA032224F47F440A432243D4
:101D8000826010BD826822F070020A4342F00701AF
:101D90008160704730B5026A22F001020262026A75
:101DA0004368846924F073050C682C4322F0020513
:101DB0008A682A430A4DA8420BD122F00805CA6856
:101DC00023F440732A434D6922F004021D438B69BA
:101DD0002B434360846149684163026230BD000067
:101DE000002C014030B5026A22F010020262026A41
:101DF000436884690D6824F4E64444EA05248D6848
:101E000022F0200242EA05120B4DA8420ED1CD6805
:101E100022F0800242EA05124D6923F4406343EA4E
:101E200085038D6922F0400243EA850343608461A3
:101E300049688163026230BD002C014030B5026AFE
:101E400022F480720262036A4268C46923F4007358
:101E500024F073050C682C438D6843EA05230C4D70
:101E6000A8420ED1CD6823F4006343EA05234D69EF
:101E700022F4405242EA05128D6923F4806342EA5B
:101E800005124260C4614968C163036230BD00004D
:101E9000002C014030B5026A22F480520262046ACA
:101EA0004268C3690D6823F4E64343EA05238D685D
:101EB00024F4005444EA0534064DA84204D14D6987
:101EC00022F4804242EA85124260C361496801649B
:101ED000046230BD002C014010B5036A046A24F08E
:101EE00001040462846924F0F00444EA021423F03B
:101EF0000A020A438461026210BD10B5036A23F02E
:101F0000100303628369046A23F4704343EA0232D4
:101F100024F0A00343EA01118261016210BD0000B8
:101F200070B5044600680169E26821F4405111432C
:101F300001612169A0680843616908432168CA6892
:101F400041F20C639A430243CA6020684169A26966
:101F500021F44071114341611E492068884202D139
:101F6000FFF7ECF801E0FFF7D9F800EBC00101EB57
:101F70000012606864218000B2FBF0F3B3FBF1F360
:101F80006FF018067343B2FBF0F5B2FBF0F605EB09
:101F90008305322303EB0515B5FBF1F5B6FBF1F62E
:101FA00005F0F00505EB0615B2FBF0F6B2FBF0F01C
:101FB000B0FBF1F06FF01802504306EB800003EB2A
:101FC0000010B0FBF1F0216800F00F002844886099
:101FD00070BD000000380140FEE70907090E002827
:101FE00004DB00F1E02080F80014704700F00F00DF
:101FF00000F1E02080F8141D704702E008C8121FAD
:1020000008C1002AFAD170477047002001E001C1E1
:10201000121F002AFBD1704788B0FEF7A9FEFFF718
:1020200025FEFFF77BFD1D48416941F0010141613B
:102030004069002200F00100079011460B20FEF7D6
:102040000FFF0B20FEF7FEFEFFF73EFDFFF7A8FD9A
:10205000144813490C2201604FF4165141600021CD
:102060008160C160C0E904128161C161FFF7C1FCF8
:10207000FFF728FE1C220C496846FEF7AFF8002146
:10208000684600F029F8094908220860054808490F
:102090004430FEF717FB00F01AF8FEE7001002408C
:1020A00000380140EC000020FC2A0008000000205D
:1020B0000008014001460020842900D0C81C704758
:1020C00010B500B9012000F015FB002010BD10B5BF
:1020D00000F036FB002010BD7FB50D460446416977
:1020E000B0F9080081B1A16971B1FFF7E3FFD4E94C
:1020F00005128DE80700D4E900102B46226900F094
:102100000CFC039004B070BDFFF7D4FF03A9CDE928
:102110000001208A2B4682B2D4E9001000F0D0FBE7
:10212000012801D00020EDE70398EBE72DE9F0410D
:10213000184C0F46054666692068001D00F016FA27
:1021400038B9206890F82C1001208840A16981439B
:10215000A161681C07D137B12168BDE8F0410E4884
:10216000091D00F047BA20683544B5424560216832
:1021700005D2A068BDE8F041091D00F023BA6068EF
:10218000091D00F01FFA206B854200D22563BDE8CF
:10219000F081000014000020F80400202DE9F04137
:1021A000054600F033FA2E4C2069401C206120685F
:1021B0002C4F10B1E06940B32DE025602069012863
:1021C00029D1002606EB860007EB800000F0ECF931
:1021D000761C072EF6D323488C3000F0E5F9214811
:1021E000A03000F0E1F91F48B43000F0DDF91D48DF
:1021F000C83000F0D9F91B48DC3000F0D5F9194897
:102200008C3060601430A06005E02068E96AC06A24
:10221000884200D82560E06A401CE062E96A01203B
:10222000A26988401043A06101EB810007EB8000A8
:10223000291D00F0DFF900F009FAE06900280CD050
:102240002068E96AC06A884207D207494FF0805087
:102250000860BFF34F8FBFF36F8FBDE8F0810000C0
:10226000140000201C04002004ED00E010B504461A
:1022700090F8510058B101280CD002280FD05020FE
:1022800080F31188BFF34F8FBFF36F8FFEE7206B92
:1022900000F0F0F92046BDE8104000F0EBB910BDA9
:1022A00010484FF44061420706D0C01D0D4920F090
:1022B0000700411AC1F540610B4A00230144C2E9FD
:1022C00000030839103A21F0070111604B600B60E0
:1022D0000B1AC0E9001393604FF000405360D060C8
:1022E000704700000C05002060000020144E154CC3
:1022F000A6F1C8074FF08058DFF84C9012E000BFFD
:1023000000F084F9F068C568281D00F02FF92069F5
:10231000401E2061E068401EE06000F097F928460A
:10232000FFF7A4FFE0680028EAD138680128F9D94E
:10233000C9F80080BFF34F8FBFF36F8FF2E7000043
:10234000E40400201400002004ED00E02DE9F04733
:102350009A46DDE9098481466FF00303206B03EBA5
:1023600082021044089D20F00706700707D0502015
:1023700080F31188BFF34F8FBFF36F8FFEE72318F1
:102380000A5C83F834200A5C12B1401C1028F6D392
:10239000002784F84370072D00D30625E562C4E9C1
:1023A0001157201D00F00BF904F1180000F007F997
:1023B0002461C5F107006462A061E76484F850708D
:1023C00052464946304600F0BFF82060B8F1000F91
:1023D00001D0C8F80040BDE8F087000030B51149D1
:1023E00000E011460A688242FBD34B685C188442C5
:1023F00003D1406818444860084643681C1894425A
:1024000009D1084C103C2468A24209D052681A44F1
:1024100042600A6812680260814200D0086030BDE4
:102420000460F9E76000002006484168096829B1A6
:102430004168C968C9684968016370474FF0FF3156
:10244000FAE700001400002008484068401C4FF0E4
:10245000500080F3118804D0BFF34F8FBFF36F8F0C
:10246000FEE7BFF34F8FBFF36F8FFEE768000020DA
:102470002DE9F0410546002700F098F9314E30680B
:1024800008B9FFF70DFFF06805424BD1C5B3083519
:1024900068070ED005F00700C0F108000544680782
:1024A00007D0502080F31188BFF34F8FBFF36F8F99
:1024B000FEE72DB37068854234D8224810300146BB
:1024C0000C6801E020460C466168A94202D22168EE
:1024D0000029F7D131688C4224D007682168016057
:1024E00060680837411B10290FD96019420708D0CE
:1024F000502080F31188BFF34F8FBFF36F8FFEE73B
:1025000010E041606560FFF769FF61687068401A1C
:102510007060B268904200D2B060F0680143002061
:10252000C4E9000100F088FA780707D0502080F352
:102530001188BFF34F8FBFF36F8FFEE73846BDE8BA
:10254000F08100005000002010B5031F4FF0807490
:102550001C601B1F21F001011960191F024B0B6049
:10256000143940380A6010BD49240008D0E901320E
:1025700001699A60D0E901235A604A68824201D118
:1025800082684A60002202610868401E086008688C
:1025900070470000034B036003F154000860802083
:1025A000106070478001002000F108014FF0FF32F9
:1025B000C0E90112C1600161002101607047002182
:1025C0000161704730B50B685A1C02D000F1080257
:1025D00002E0026904E02246546825689D42FAD967
:1025E00053684B6099608A60516008610168491CBA
:1025F000016030BD42684A6093688B60936859609F
:10260000916008610168491C01607047502080F3A7
:102610001188BFF34F8FBFF36F8F0A494868401C82
:10262000486001280CD10848006810F0FF0F07D05F
:10263000502080F31188BFF34F8FBFF36F8FFEE7F9
:10264000704700006800002004ED00E00849486879
:1026500028B1401E486001D180F311887047502096
:1026600080F31188BFF34F8FBFF36F8FFEE7000039
:102670006800002070B5002827D0144DA0F1080490
:102680006168E868014207D1502080F31188BFF3E8
:102690004F8FBFF36F8FFEE722683AB1502080F36F
:1026A0001188BFF34F8FBFF36F8FFEE781436160E7
:1026B00000F07CF860686968084468602046FFF7AD
:1026C0008DFEBDE8704000F0B7B970BD500000202D
:1026D0004FF0E02000210161816105494FF47A72D9
:1026E0000968B1FBF2F1491E4161072101617047A0
:1026F0001000002010B5020014D00F48806B38B1D4
:10270000502080F31188BFF34F8FBFF36F8FFEE728
:1027100000F04CF800211046FFF708FD00F08CF99E
:10272000002807D105494FF080500860BFF34F8F54
:10273000BFF36F8F10BD00001400002004ED00E017
:1027400010B586B00024039405AA04A903A8049434
:10275000FFF720FFDDE903010094CDE9011000231C
:102760000EA11048059A00F0D8F80F4900284863D8
:1027700011D0502080F31188BFF34F8FBFF36F8FBC
:102780004FF0FF3008630120C8614C6106B0BDE81E
:10279000104000F041B806B010BD000049444C455F
:1027A00000000000ED220008140000200248816BA8
:1027B000491C816370470000140000201448816B9D
:1027C00011B1012141627047002141628169B1FA72
:1027D00081F1C1F11F0101EB81020E4951F8223054
:1027E0006BB101EB820101F108034A6852684A604B
:1027F0009A4201D152684A60D16801607047502006
:1028000080F31188BFF34F8FBFF36F8FFEE7000097
:10281000140000201C0400201CB5264908780190F3
:10282000FF20087008788DF800009DF800009DF8E2
:10283000002000F0F000904207D0502080F3118873
:10284000BFF34F8FBFF36F8FFEE79DF800001A4B69
:1028500000F0500018700720986005E09DF80020F7
:1028600052008DF80020401E9DF800201206F5D47D
:102870009860032807D0502080F31188BFF34F8F52
:10288000BFF36F8FFEE74FF44070986001980870B7
:102890000A48016841F470010160016841F070412B
:1028A0000160FFF715FF00205860FDF73BFC00209A
:1028B0001CBD000000E400E06800002020ED00E006
:1028C0002DE9FF5F8346DDE90E87994616468A4665
:1028D0009000FFF7CDFD05001CD05420FFF7C8FD88
:1028E000040014D00020256384F85100CDE9024093
:1028F000CDE900874B46324651465846FFF726FD44
:102900002046FFF74BFC012004B0BDE8F09F2846AD
:10291000FFF7B0FE4FF0FF30F6E7F0B585B0DDE928
:102920000B640A9DA6B1DCB15427009726630226EA
:1029300084F85160002604AFCDE90246CDE9005786
:10294000FFF704FD2046FFF729FC049805B0F0BD11
:10295000502080F31188BFF34F8FBFF36F8FFEE7D6
:10296000502080F31188BFF34F8FBFF36F8FFEE7C6
:102970002DE9F0412E4C0027A06B40B1206A401C8D
:102980002062606A00B101273846BDE8F0816669BF
:10299000761C666113D16068006838B1502080F3FE
:1029A0001188BFF34F8FBFF36F8FFEE76068A16898
:1029B0006160A060A06A401CA062FFF735FD206B3B
:1029C000DFF87080864209D36068006880B1606873
:1029D000C068C568686886420DD220632068C06AF6
:1029E00000EB800158F821000128CAD90127C8E767
:1029F0004FF0FF30F1E7281DFFF7B8FDA86A18B1C6
:102A000005F11800FFF7B2FDE86A0121A2698140D3
:102A10001143A16100EB800108EB8100291DFFF744
:102A2000E9FDE86A2168C96A8842CDD30127CBE76E
:102A3000140000201C0400202DE9F0472C4D002438
:102A40002746A86B38B1FFF7E1FDA86B401EA863CD
:102A5000A86B40B146E0502080F31188BFF34F8F40
:102A6000BFF36F8FFEE72969224E0120D1B3A6F193
:102A7000B40980463068E8B1F068C46804F1180011
:102A8000FFF774FD201DFFF771FDE06AAA6908FADF
:102A900000F11143A96100EB800109EB8100211DC8
:102AA000FFF7A8FDE06A2968C96A8842E2D3C5F841
:102AB0002480DFE70CB1FFF7B7FC2C6A44B146462F
:102AC000FFF756FF00B16E62641EF9D10020286244
:102AD000686A38B10849012738070860BFF34F8F8B
:102AE000BFF36F8FFFF7B2FD3846BDE8F0870000F7
:102AF00014000020D004002004ED00E0302B00087A
:102B0000291C0008000000000000000080000000F8
:102B100000000000000000000000000000000000B5
:102B20000102030406070809000000000102030473
:102B300064656661756C745461736B005C2B00088E
:102B40000000002074000000FA1F0008D02B0008CD
:102B5000740000209C1400000A20000800000000FF
:102B60000100000010000000000000000024F4003C
:102B70000000000000000000000000000000000055
:102B80000000000000000000000000000000000045
:102B90000000000000000000000000000000000035
:102BA0000000000000000000000000000000000025
:102BB0000000000000000000000000000000000015
:102BC0000000000000000000AAAAAAAA000000005D
:04000005080000ED02
:00000001FF
