:020000040800F2
:10000000B0150020990100080B2A000847260008B7
:10001000092A0008E5090008052F00080000000073
:1000200000000000000000000000000001010008C6
:10003000870C00080000000045010008ED2A0008B8
:10004000B3010008B3010008B3010008B3010008C0
:10005000B3010008B3010008B3010008B3010008B0
:10006000B3010008B3010008B3010008510C0008F7
:10007000B3010008B3010008B3010008B301000890
:10008000B3010008B3010008B3010008B301000880
:10009000B3010008B3010008B3010008B301000870
:1000A000B3010008B3010008B3010008B301000860
:1000B000B3010008B3010008A52B0008B301000834
:1000C000B3010008B3010008B3010008B301000840
:1000D000B3010008B3010008B3010008B301000830
:1000E000B3010008B3010008B3010008DFF80CD029
:1000F00000F0A8FB00480047A9390008B01500200F
:10010000224B19680868B0E8F00F80F30988BFF344
:100110006F8F4FF0000080F311884EF00D0E704786
:100120000000000006480068006880F3088862B696
:1001300061B6BFF34F8FBFF36F8F00DF00BF00BF0B
:1001400008ED00E0EFF30980BFF36F8F0F4B1A68E3
:1001500020E9F00F106008B54FF0500080F31188CF
:10016000BFF34F8FBFF36F8F04F018F94FF000000B
:1001700080F31188BDE8084019680868B0E8F00FFE
:1001800080F30988BFF36F8F704700BF48000020DD
:10019000EFF3058070470000064880470648004797
:1001A000FEE7FEE7FEE7FEE7FEE7FEE7FEE7FEE727
:1001B000FEE7FEE76D2B0008ED000008202A04DBB7
:1001C000203A21FA02F00021704721FA02F3D040D0
:1001D000C2F12002914008431946704740EA0103EA
:1001E0009B0703D009E008C9121F08C0042AFAD2ED
:1001F00003E011F8013B00F8013B521EF9D27047B1
:10020000D2B201E000F8012B491EFBD27047002258
:10021000F6E710B513460A4604461946FFF7F0FF05
:10022000204610BD421C10F8011B0029FBD1801A8A
:1002300070472DE9FE4F804681EA0300C00F0C464F
:10024000009021F0004123F00045B8EB0200A941E5
:1002500005D24046214690461C460B46024623F0F6
:100260000040104347D0270DC7F30A00C3F30A51DB
:100270000290401A019040286BDAC3F3130040F457
:10028000801B0098924620B10023D2EB030A63EB57
:100290000B0B01985946C0F14002504600F07BF923
:1002A00006460D4650465946019A00F083F910EB78
:1002B00008006141002487EA115284EAE7731A4377
:1002C00040D0009A62B3019A012A4FEA075215DC26
:1002D000001B61EB02014FF0004202EA0752CDE938
:1002E0000042001C41F5801132462B4600F0BAF95D
:1002F00003B0BDE8F08F40462146F9E7001B61EBF3
:100300000201001C41F5801300185B412018A2F582
:10031000001747EB030140EAD570B6196D4111E0B3
:100320006D084FEA360645EAC0754FEA0752001BD2
:1003300061EB0201001C41F5801149084FEA3000D1
:100340000019514132462B4603B0BDE8F04F00F092
:100350007AB90098012240000023D0EB020263EB3F
:10036000E073009821464FEAE074B8EB000061EBBF
:100370000401E9E783F000435BE781F0004158E7BF
:100380002DE9F04D81EA030404F0004B21F0004513
:1003900014464FF0000A23F0004150EA050220D035
:1003A00054EA01021DD0C5F30A570246C5F31303F0
:1003B000C1F31300C1F30A5640F4801543F48013CF
:1003C000A7EB0608101BD64608F2FD3873EB0500B4
:1003D00002D308F1010801E092185B41B8F1000F67
:1003E00003DA00200146BDE8F08D00204FF48011B3
:1003F000064684460EE0171B73EB050705D3121B58
:1004000063EB050306434CEA010C49084FEA300050
:1004100092185B4150EA0107EDD152EA030012D075
:1004200082EA040083EA0501084305D0101BAB41B2
:1004300006D20122002306E000224FF0004302E032
:100440006FF0010253101AEB06004CEB085110EB51
:100450000A0041EB0B01BDE8F04D00F0F4B80EB519
:1004600040F2334102910021CDE900110A460B46CA
:1004700000F0F8F803B000BD00F0004220F00040AA
:10048000C10DC0F3160040F400007F2901DA0020FE
:100490007047962903DCC1F19601C84001E0963906
:1004A0008840002AF4D04042704700F0004230F00B
:1004B00000400AD0C10D01F56071C0F3160042EA98
:1004C0000151C208400711437047002001467047A0
:1004D00001F0004330B421F0004150EA010206D09F
:1004E0000A0DA2F56072C1F31301002A02DC30BCD0
:1004F00000207047440F44EAC104C100E01830BC3A
:1005000000EBC25000F068B830B50B460146002041
:100510002022012409E021FA02F59D4205D303FAC5
:1005200002F5491B04FA02F52844151EA2F1010246
:10053000F1DC30BD2DE9F05F0546002092469B4678
:1005400088460646814640241BE0284641464746E9
:100550002246FFF733FE53465A46C01A914110D344
:1005600011461846224600F016F82D1A67EB0108CE
:100570004F4622460120002100F00DF817EB00093C
:100580004E41201EA4F10104DFDC484631462A46D4
:100590004346BDE8F09F202A04DB203A00FA02F12E
:1005A000002070479140C2F1200320FA03F3194361
:1005B00090407047202A06DBCB17203A41FA02F020
:1005C00043EAE07306E041FA02F3D040C2F12002B0
:1005D00091400843194670470029A8BF7047401C46
:1005E000490008BF20F00100704710B4B0FA80FC49
:1005F00000FA0CF050EA010404BF10BC704749B186
:10060000CCF1200421FA04F411FA0CF118BF0121F5
:1006100021430843A3EB0C01CB1D4FEA00614FEAD5
:10062000102042BF002010BC704700EBC3501044A4
:100630000029A4BF10BC7047401C490008BF20F02F
:10064000010010BC704710B5141E73F1000408DAE5
:10065000401C41F1000192185B411A4301D120F086
:10066000010010BD2DE9F04D92469B4611B1B1FA43
:1006700081F202E0B0FA80F220329046FFF78BFF61
:1006800004460F4640EA0A0041EA0B0153465A4627
:10069000084313D0114653EA010019D0C8F14002B3
:1006A0005046FFF78BFD05460E46504659464246DA
:1006B000FFF771FF084305D0012004E020463946CA
:1006C000BDE8F08D0020054346EAE0762C43374331
:1006D0000A986305E40AA0EB08000022FD0A44EA38
:1006E00047540A3002D500200146E9E701051019F8
:1006F0006941DDE9084500196941BDE8F04DA2E70F
:100700002DE9FE4F81EA030404F0004421F000418A
:1007100000944FF0000B23F0004350EA01045ED038
:1007200052EA03045BD0C3F30A54C1F30A552C44C4
:10073000A4F2F3340194A0FB0254C1F3130141F479
:100740008011C3F3130343F4801301FB024400FB45
:10075000034E840A970A44EA815447EA8357A4FB6C
:10076000076802958D0A05FB07854FEA932C04FB69
:100770000C542705029D4FEA065847EA1637B5EB99
:1007800008056EEB070C870E920E47EA811742EAC6
:100790008312A7FB0201B6EB0B0164EB00042B0DE7
:1007A00043EA0C335E1844EB1C50DA465146E7FB33
:1007B0000201C5F313044FEA0B3343EA14534FEA23
:1007C0000432019C43EA0603A4F10C040294009C49
:1007D000CDE900B4FFF746FF03B0BDE8F08F00207D
:1007E0000146F9E7C1F30A52C1F3130140F2FF33A6
:1007F00041F480119A4202DA00200146704740F22B
:1008000033439A42A2F2334202DC5242FFF7D6BC93
:10081000FFF7C1BE30B5041E71F1000404DB4FF0D8
:100820000044404264EB0101141E73F1000405DB37
:100830001C464FF00043524263EB0403994208BF49
:10084000904230BD064C074D06E0E06840F00103E1
:1008500094E8070098471034AC42F6D3FFF74AFCFF
:10086000204C0008404C000870B5044600688168C0
:10087000C943C90717D1816821F00101816000F0E7
:10088000FBFD05460AE000BF00F0F6FD401B022814
:1008900004D920688068C043C00706D020688068FB
:1008A000C043C007F0D0002070BDA06A40F0100027
:1008B000A062E06A40F00100E062012070BD10B566
:1008C0000146406A826A12F0500F05D0006A026B3E
:1008D000BDE8104008461047816A41F4007181620A
:1008E00001688968C1F3424107290CD1017B51B9E4
:1008F000816A21F480718162816AC90403D4816AAA
:1009000041F00101816200F03FFA10BD10B5406A6C
:10091000816A41F040018162C16A41F00401C16213
:1009200000F034FA10BD10B5406A00F02EFA10BD88
:10093000F8B500260446009600688168C943C907D7
:100940002DD0816841F00101816016481649006888
:10095000B0FBF1F000E0401E00900028FBD100F059
:100960008BFD054616E000BF00F086FD401B022807
:1009700010D920688068C043C0070BD0A06A40F03F
:100980001000A062E06A40F00100E06284F8246098
:100990000120F8BD20688068C043C007E4D1002072
:1009A000F8BD00004400002040420F000B4DA5F1AF
:1009B0001804022209490A4800F0C0FA00231A4626
:1009C0000649606903F0D4FD00231A46A91C60693A
:1009D00003F0CEFD642003F057FCEAE71800002086
:1009E000A8000020FEE7000070B5154E05463068EF
:1009F00029780124103104FA01F1084330601420F1
:100A000003F090F84FF0010080F3108831682A78E5
:100A100004FA02F0014331600A4800210160084AEB
:100A2000083A05E011682B7804FA03F3194202D062
:100A300001683729F6D34FF0000080F3108870BDAD
:100A400010080140242C0140F0B503461349002052
:100A500005460860124C01220AE026681F7802FA57
:100A600007F73E4204D00E68462E01D9401C02E032
:100A70000E685A2EF1D30D600BE025681E7802FA3D
:100A800006F6354205D10D68462D02D9401CC0B28C
:100A9000F0BD0D685F2DF0D3F0BD0000242C0140A7
:100AA000080801402DE9FC470446FFF79DFF4FF081
:100AB000010080F310882046FFF7C6FF02283BD1D3
:100AC0000023314D31499946EA46012207204E461E
:100AD000C1F800900AE02F6894F800C002FA0CFCFC
:100AE00017EA0C0F02D00F68282F02D80F683C2F8E
:100AF000F1D30E60164608E0D5F800C094F80080E7
:100B000006FA08F71CEA070F02D00F68502FF3D33C
:100B10000F681AF803C0322F574602FA00F602D9BE
:100B20004CEA060C01E02CEA060C07F803C0401E54
:100B3000CDD55B1C042BC9DB9DF802109DF803008A
:100B400001F07F0100EB0120FFF789FC104D00222E
:100B50002B46FFF715FCFFF7BBFC60609DF801001A
:100B60009DF8001000EB0120FFF779FC00222B46D6
:100B7000FFF706FCFFF7ACFCA0604FF0000080F32D
:100B80001088BDE8FC87000008080140242C0140C3
:100B90000000244070B50F230724072A0CD94E68A3
:100BA0006FF01F0505EB8205AB409E434E604B681E
:100BB000AC4023434B6008E00E689500AB409E4379
:100BC0000E600B68AC4023430B60027070BD0000E8
:100BD0001A4E1B4C4FF47A771848FFF763FF706882
:100BE0002062B06816490023E0621A46203120696D
:100BF00003F0BEFC124900231A462C31206903F091
:100C0000B7FCE06AFFF738FC0546A062206AFFF7F0
:100C100033FC0246606209482B460AA1183802F0EC
:100C200073F90649642318390C22A1F1440001F03C
:100C3000B1FC384603F028FBCEE70000D0010020CD
:100C400000000020253464202534640A00000000E0
:100C5000014800F0F9B90000DC01002030B590F83F
:100C600040500124AC40C56B6C600468636043680D
:100C7000102B036803D099600068C26030BD9A6091
:100C80000068C16030BD704770470000F8B50024AF
:100C9000009490F824202546012A12D0012280F8E1
:100CA00024204A681F23072A0DD20668776B521E3C
:100CB00002EB820293409F430B6893401F4377638C
:100CC00019E00220F8BD06680D2A0AD2376BD21F40
:100CD00002EB820293409F430B6893401F433763AC
:100CE00009E0F76A0D3A02EB820293409F430B68DA
:100CF00093401F43F7620A68072306680A2A0AD34B
:100D0000F7680A3A02EB420293409F438B68934094
:100D10001F43F76008E0376902EB420293409F43AC
:100D20008B6893401F4337610A68102A01D0112A4B
:100D300020D1124B02689A4217D193681B0219D432
:100D4000936843F4000393600968102912D10C4999
:100D50000C4A0968B1FBF2F101EB8101490000E0A6
:100D6000491E00910029FBD104E0816A41F0200175
:100D70008162012480F824502046F8BD00240140FF
:100D80004400002040420F00704770477047000049
:100D90002DE9F0414FF0000704003D467ED0A06AE7
:100DA000002628B9E66284F82460204600F07EF828
:100DB0002046FFF759FDA16AC90600D420B1A06AF8
:100DC00040F01000A06269E0A16A21F4885141F06E
:100DD0000201A1626268E169237B0A4347EA430199
:100DE0000A43A1684FF48077B94209D0012907D09E
:100DF0005FF0000194F814C0BCF1010F02D00AE0CA
:100E00003946F7E7F3B1A36A43F02003A362E36A2C
:100E100043F00103E3622368D3F804C02CF4694C67
:100E20004CEA010CC3F804C021688B68DFF870C07D
:100E300003EA0C0313438B60A168B9420BD001296C
:100E400009D00CE0DFF85CC0A3690CEB43330B4323
:100E500043F40061DFE7218A0D05A5F580152168BF
:100E6000CB6A23F470032B43CB62216889680E4B55
:100E70001940914208D1E662A16A21F0020141F0D5
:100E80000101A162BDE8F081A06A20F0020040F0FB
:100E90001000A062E06A40F00100E0620120F1E78A
:100EA000FDF7E1FF00E0FFFFFE0E1FFF70B586B00B
:100EB00000250646009501950295039500681A499C
:100EC00088422ED11949886940F400708861886988
:100ED00000F400700490886940F00400886188691B
:100EE000694600F00400049018200090032001904F
:100EF0000F4800F0CBF9104C0E48C4E900058020E3
:100F0000C4E9025040002061800060612020C4E9F3
:100F10000605204600F042F908B1FFF7B5FE34623D
:100F2000666206B070BD000000240140001002405F
:100F30000008014008000240DC0100202DE9F047D4
:100F4000894604463B4900683B4F0E1D9046884247
:100F500001D0B84207D1306810F4702F03D00125BA
:100F60002846BDE8F08794F8240001280CD0012021
:100F700084F824002046FFF7DBFC05004FF000005A
:100F800004D084F82400EBE70220EAE7A16A40F6E7
:100F90000162914341F48071A1622168B94218D184
:100FA000326812F4702F14D0A16A41F48011A1624A
:100FB0003168490505D5A16A21F4005141F48051F9
:100FC000A162A16AC9040AD5E16A21F00601E162C1
:100FD00006E0A26A22F48012A2624968E9E7E062B0
:100FE00084F82400216A15488862216A1448C8627E
:100FF000216A1448086321686FF0020008602068C5
:10100000816841F480718160216843464A464C31D1
:10101000206A00F0F1F820688168C1F34241072995
:10102000816803D041F48011816099E741F4A00107
:10103000FAE700000024014000280140BF08000832
:10104000270900080D0900082DE9F05FC16B0C6845
:1010500001680B68D0F840C0042202FA0CF2494D36
:10106000DFF824A1494E4A4FDFF828B1DFF828E124
:1010700022422CD05A072AD50A68920603D40A685D
:1010800022F004020A600168A94201D1042219E099
:10109000514501D1402215E0B14202D14FF48062A6
:1010A00010E0B94202D14FF480420BE0594502D121
:1010B0004FF4802206E0714502D14FF4800201E036
:1010C0004FF080622F4908394A60C16A3BE04FF017
:1010D000020808FA0CF818EA040F4FF000094FF064
:1010E000010235D05FEA837832D50B689B0605D4C0
:1010F0000B6823F00A030B6080F821200168A942E5
:1011000001D1022219E0514501D1202215E0B1425E
:1011100002D14FF4007210E0B94202D14FF40052F4
:101120000BE0594502D14FF4003206E0714502D17F
:101130004FF4001201E04FF00072124908394A6082
:1011400080F82090816A00291AD0BDE8F05F084736
:10115000082505FA0CF5254212D01B0710D50B689F
:1011600023F00E030B6090F84010C36B02FA01F1FC
:101170005960826380F8212080F82090016BE2E7BB
:10118000BDE8F09F080002401C0002403000024011
:1011900044000240580002406C00024030B528B3C1
:1011A00008C8134914221944B1FBF2F18900C16344
:1011B00010498163022141771A6843F6F0718A432E
:1011C000D0E900142143D0E902452C4321430469AE
:1011D000214344692143846921431143196000215B
:1011E0004163012242770177084630BD012030BDBE
:1011F000F8FFFDBF0000024070B5044690F82000E3
:10120000002501280CD0012084F8200094F82160EA
:101210000020012E06D084F820000225284670BD4B
:10122000022070BD022684F82160A0632068066851
:1012300026F0010606602046FFF710FDE06A002850
:101240002068016802D041F00E0106E021F004019F
:1012500001602068016841F00A01016020680168AE
:1012600041F001010160D9E770B5044600F004F9CE
:101270000546601C02D004480078044400F0FCF8E5
:10128000401BA042FAD370BD380000202DE9F84F72
:10129000DFF8B891002409F1040A0AF1040B23468F
:1012A0000F270BF1040EC9E00125A5402A40AA42F0
:1012B0007DD1674ED1F804C0ACEB0608B44532D0FE
:1012C00014DCBCF1030F3AD009DCBCF1000F2AD0CA
:1012D000BCF1010F1CD0BCF1020F31D11DE0BCF1FB
:1012E000110F17D0BCF1120F2AD119E0B8F5881FE1
:1012F00019D006DCB8F5803F15D0B8F5801F1FD196
:1013000011E0B8F5001F0ED0B8F5041F18D10AE09F
:10131000CB6815E0CB681B1D12E0CB6808330FE0EB
:10132000CB680C330CE08B682BB1012B4FF008031A
:1013300003D0456104E0042302E0056100E00023DE
:10134000FF2A01D8064601E000F104064FEA8405B1
:1013500001D9A5F12005D6F8008007FA05FC28EA96
:101360000C0803FA05F548EA0508C6F800804D6840
:10137000ED0062D5374DAE6946F00106AE61AD694C
:1013800024F0030605F001050095334D06EB050C2E
:10139000DCF80850A607360F07FA06F825EA080514
:1013A000DFF8B880404503D14FF0000817E044E073
:1013B000DFF8AC80404502D14FF001080FE0DFF8C4
:1013C000A480404502D14FF0020808E0DFF8988081
:1013D000404502D14FF0030801E04FF0040808FA3D
:1013E00006F848EA0508CCF808804D68D9F800608E
:1013F000ED034D4601D5164300E096432E604D683F
:10140000DAF80060AD03554601D5164300E0964377
:101410002E604D68DBF80060ED025D4601D5164395
:1014200000E096432E604D68DEF80060AD02754620
:1014300001D5164300E096432E60641C0D682A46D1
:10144000E5407FF431AFBDE8F88F000000040140B3
:10145000000011100010024000000140000801408F
:10146000000C014000100140001401400AB101616C
:1014700070470904FBE700000148806870470000DE
:101480003800002070B5040025D094F83D000025F8
:1014900020B984F83C50204600F04EF9242084F80E
:1014A0003D002068016821F00101016020680168A9
:1014B00041F4004101602068016821F400410160AD
:1014C00000F046FB4D4A6168914201D84C4900E06A
:1014D0004C49884201D2012070BD4B492368B0FBC2
:1014E000F1F15E6826F03F060E435E60636893424A
:1014F00006D94FF4967359434FF47A73B1FBF3F165
:101500002368491C1E6A26F03F0631431962616850
:10151000914210D84900401EB0FBF1F2521CC2F3B8
:101520000B02042A01D2042022E0B0FBF1F0401C9F
:10153000C0F30B001CE0A268F2B301EBC10303EBA4
:101540000116431EB3FBF6F35B1C43F480431B05FB
:1015500049D092B301EBC10202EB0111401EB0FB76
:10156000F1F0401CC0F30B0040F4804040F4004018
:101570002168CA694CF6FF739A431043C861D4E9E5
:10158000071001432068026822F0C0021143016085
:10159000D4E9030101432068826848F2FF339A438B
:1015A00011438160D4E9050108432168CA6822F02B
:1015B000FF021043C86001E00EE016E020680168F9
:1015C00041F0010101602564202084F83D0025637D
:1015D00084F83E50002070BD01EB4106431EB3FB72
:1015E000F6F35B1CB3E70120C2E701EB4101401EAB
:1015F000B0FBF1F0401CC0F30B00B7E7A086010080
:1016000080841E0000093D0040420F002DE9F84F84
:101610001F4690468A460446DDF82890FFF72CFFC7
:10162000054694F83D0020287FD119230122404926
:101630002046009501F094F8002876D194F83C00FB
:10164000012872D0012084F83C0020680168C90795
:1016500003D1016841F0010101602068016821F4B3
:1016600000610160212084F83D00102084F83E00D4
:1016700000262664C4F824806785608D20852D4867
:10168000E0622B464A465146204600F0F5FF90B9ED
:10169000206841698069009036E02A464946204624
:1016A00001F0DDF850B1206C042804D120680168F5
:1016B00041F4007101600120BDE8F88F606A216883
:1016C00000780861606A401C6062618D491E618516
:1016D000218D491E89B2218522685369DB435B074E
:1016E0000BD451B100781061606A401C6062608D5B
:1016F000401E6085208D401E20852A464946204692
:1017000001F008F80028CED1208D0028C5D154F86A
:101710003D0B016841F400710160202004F81E09AE
:10172000E67766770020C7E7FFE70220C4E70000FE
:10173000020010000000FFFF10B586B000210091EC
:1017400001910291039100680F4988421AD10F4C10
:10175000A06940F00800A061A069694600F0080097
:101760000490C020009012200190032003900848AC
:10177000FFF78CFDE06940F40010E061E06900F4DF
:101780000010049006B010BD00540040001002404C
:10179000000C014002488168027811448160704762
:1017A00038000020074810B5016841F010010160C1
:1017B000032000F08FF8002000F006F800F03EF85B
:1017C000002010BD0020024000B5014687B0002275
:1017D0001E2000F05FF81E2000F04EF81348C1698B
:1017E00041F00401C161C06905A900F00400069040
:1017F000684600F08DF900F0ABF90D490D4AB0FBD9
:10180000F1F10D48491E0260416040F2E7320021CB
:10181000C0E90321816000F0B7FB10B1012007B0DF
:1018200000BD054800F0F0FBF9E7000000100240A1
:1018300040420F0000080040740400200C4808B526
:10184000816941F001018161816901F0010100912B
:10185000C16941F08051C161C06900F080500090C1
:101860000448416821F0E06141F00071416008BD29
:101870000010024000000140002809DB00F01F02B8
:10188000012191404009800000F1E020C0F80011E2
:1018900070470000F0B40E4B1B680C46C3F30223E4
:1018A000C3F10705042D00D90425191D072901D20C
:1018B000002300E0DB1E012606FA05F1491E214047
:1018C00099409E40761E16403143F0BC01F042BB69
:1018D0000CED00E0064900F0070208684FF6FF0330
:1018E000184040EA0220034A104308607047000095
:1018F0000CED00E00000FA052DE9F84305460078FC
:10190000354CC00754D0E0690026C00008D4E06917
:1019100040F08050E061E069012600F080500090C6
:101920002E480168C90512D40168804641F48071CF
:101930000160FFF7A1FD074605E000BFFFF79CFD32
:10194000C01B642823D8D8F80000C005F6D5206A4B
:1019500010F4407021D0A98801F4407181421CD05C
:10196000206A1F49012220F440700A6000220A60A8
:101970002062C00711D0FFF77FFD074641F288388B
:1019800008E000BFFFF778FDC11B414502D90320E5
:10199000BDE8F883206A8007F4D5206A696820F4DE
:1019A0004070084320621EB1E06920F08050E06181
:1019B0002878800705D56068A96820F4404008436E
:1019C00060602878C00605D56068E96820F480006A
:1019D000084360600020DBE7001002400070004018
:1019E000400442422DE9F0470F46050061D0434EC6
:1019F000306800F00700B84209D2306820F00700D4
:101A000038433060306800F00700B84251D1286890
:101A10003B4C810712D5400703D5606840F4E06075
:101A200060602878000703D5606840F4605060600B
:101A30006068A96820F0F000084360602878C0075B
:101A400028D06868012810D02168022810D08907A2
:101A500000292EDA616821F0030101436160FFF77C
:101A60000BFD804641F288390DE021688903EFE7DC
:101A70008901EDE7FFF700FDA0EB0801494502D918
:101A80000320BDE8F0876068696800F00C00B0EBE7
:101A9000810FEFD1306800F00700B8420BD93068F1
:101AA00020F0070038433060306800F00700B8428B
:101AB00001D00120E5E72878400705D56068E9688E
:101AC00020F4E060084360602878000706D560686D
:101AD000296920F4605040EAC100606000F058F8C5
:101AE0006168084AC1F30311515CC84006490860A7
:101AF00006480068FFF768FE0020C2E700200240A9
:101B000000100240FC4B0008440000203C00002074
:101B10000F2202600C4A536803F0030343605368CA
:101B200003F0F0038360536803F4E063C36052681A
:101B30004FF4E06303EAD20202610448006800F057
:101B400007000860704700000010024000200240BB
:101B50000448054900684968044AC1F30221515C00
:101B6000C840704744000020001002400C4C0008A0
:101B70000448054900684968044AC1F3C221515C20
:101B8000C840704744000020001002400C4C000880
:101B900012A185B00FC98DE80F0014A0144A006887
:101BA00004905168134801F00C03042B10D0082B4B
:101BB0000ED1C1F38343C9031DF803000AD5516850
:101BC00004AAC1F34041515C0A4A5043B0FBF1F012
:101BD00005B0704708494843FAE7000002030405CE
:101BE000060708090A0B0C0D0E0F10100102000069
:101BF0000010024000127A0000093D002DE9F84F64
:101C0000040070D02078C04DC00749D06868C0F388
:101C10008100012807D06868C0F38100022809D13B
:101C20006868C00306D52868800339D56068002835
:101C3000E7D035E06068B0F5803F0BD010B1B0F56B
:101C4000A02F11D0286820F480302860286820F464
:101C5000802002E0286840F480302860606890B1FD
:101C6000FFF70AFC06460AE0286840F48020286056
:101C7000F0E700BFFFF700FC801B642873D82868DA
:101C80008003F7D50CE0FFF7F7FB064605E000BF41
:101C9000FFF7F2FB801B6428F0D828688003F7D494
:101CA00020789A4E80074FF001094FF0000839D58F
:101CB000686810F00C0F07D06868C0F38100022834
:101CC00009D16868C00306D42868800714D5206944
:101CD000012808D110E02069B0B1C6F80090FFF7E4
:101CE000CBFB074605E00AE1FFF7C6FBC01B022855
:101CF000C4D828688007F7D52868616920F0F80003
:101D000040EAC10028600DE0C6F80080FFF7B4FB90
:101D1000074604E0FFF7B0FBC01B022823D8286861
:101D20008007F7D4207800072CD57948A169D9B16C
:101D3000C0F80090FFF7A0FB074604E0FFF79CFB0C
:101D4000C01B02280FD8686A8007F7D571484FF486
:101D5000FA510068B0FBF1F0009000BF0098411EFE
:101D60000091FAD20EE080E0C0F80080FFF784FB1B
:101D7000074604E0FFF780FBC01B022875D8686A9D
:101D80008007F7D42078400760D5E8690027C000B5
:101D900008D4E86940F08050E861E869012700F064
:101DA000805000905C480168C90513D401688346DF
:101DB00041F480710160FFF75FFB824606E000BFDF
:101DC000FFF75AFBA0EB0A0064284ED8DBF80000AE
:101DD000C005F5D5E06801280AD008B1052813D060
:101DE000286A20F001002862286A20F0040002E03E
:101DF000286A40F001002862E06841F2883B98B10F
:101E0000FFF73AFB82460BE0286A40F004002862A4
:101E1000EEE700BFFFF730FBA0EB0A0159455AD8A7
:101E2000286A8007F6D50CE0FFF726FB824605E01E
:101E3000FFF722FBA0EB0A0159454CD8286A80071E
:101E4000F6D41FB1E86920F08050E861E06988B3FA
:101E50006968C1F38101022944D00228C6F8608074
:101E600004D0FFF709FB044638E034E0FFF704FB39
:101E7000074604E0FFF700FBC01B02282BD82868A8
:101E80008001F7D4206AB0F5803F05D16868A16869
:101E900020F4003008436860D4E908010843696809
:101EA00021F4741108436860C6F86090FFF7E4FA03
:101EB000044606E025E000BFFFF7DEFA001B02281B
:101EC00009D828688001F7D51BE000BFFFF7D4FAD6
:101ED000001B022802D90320BDE8F88F2868800182
:101EE000F4D40EE00128F7D06868226A00F480314B
:101EF000914204D1616A00F47010884201D001203F
:101F0000EAE70020E8E7000000100240000042423B
:101F10008004424244000020007000407047704737
:101F200070B590F83C20012A26D0012480F83C406E
:101F3000022280F83D2003685A689D6822F07006EE
:101F40000A6832435A600D4B02689A4208D0B2F1D7
:101F5000804F05D00A4B9A4202D00A4B9A4204D1D4
:101F6000496825F080031943916080F83D400021C5
:101F700080F83C10084670BD022070BD002C014066
:101F8000000400400008004010B5040003D094F89D
:101F90003D0010B107E0012010BD002084F83C0096
:101FA000204600F01FF8022084F83D00211D206823
:101FB00000F0FEFD012084F8460084F83E0084F81D
:101FC0003F0084F8400084F8410084F8420084F81F
:101FD000430084F8440084F8450084F83D00002064
:101FE00010BD000008B50068B0F1804F08D1054869
:101FF000C16941F00101C161C06900F001000090B8
:1020000008BD00000010024090F83D10012901D0E9
:1020100001207047022180F83D100168CA6842F033
:102020000102CA6000680B49884208D0B0F1804FB5
:1020300005D00949884202D00849884204D1816804
:1020400001F00701062903D0016841F00101016098
:1020500000207047002C01400004004000080040B0
:1020600070B5044690F83C00012817D0012584F88B
:102070003C50022084F83D002068826822F07702FC
:1020800022F47F4282600868502830D00DDC20287E
:102090004DD005DC98B310283BD148E0022070BD3C
:1020A000302844D0402834D139E0602828D0702826
:1020B00006D0B0F5805F2CD0B0F5005F29D10AE0E2
:1020C000CB68D1E90121206800F0B5FD2068816866
:1020D00041F0770109E0CB68D1E90121206800F0E7
:1020E000AAFD2068816841F48041816011E0CA68DE
:1020F0004968206800F054FE5021206807E016E08F
:10210000CA684968206800F05CFE6021206800F021
:102110009CFD84F83D50002084F83C0070BDCA68E6
:102120004968206800F03CFE40212068EFE7226803
:1021300001461046EBE7704770B504460068016938
:102140004FF00005C943890715D4C168C943890701
:1021500011D4E91E01610120207720688069800781
:10216000204602D0FFF7E7FF04E000F0BDF820466C
:1021700000F04CF9257720680169C943490717D455
:10218000C168C943490713D46FF0040101610220FB
:1021900020772068806910F4407F204602D0FFF746
:1021A000CAFF04E000F0A0F8204600F02FF92577E0
:1021B00020680169C943090716D4C168C9430907E2
:1021C00012D46FF008010161042020772068C069F3
:1021D0008007204602D0FFF7AEFF04E000F084F84D
:1021E000204600F013F9257720680169C943C90624
:1021F00017D4C168C943C90613D46FF01001016137
:10220000082020772068C06910F4407F204602D063
:10221000FFF791FF04E000F067F8204600F0F6F8C1
:10222000257720680169C943C90708D1C168C94336
:10223000C90704D1891E0161204600F037F92068E2
:102240000169C943090609D4C168C943090605D40F
:102250006FF0800101612046FFF760FE2068016990
:10226000C943490609D4C168C943490605D46FF07A
:1022700040010161204600F023F920680169C9434B
:1022800089060BD4C168C943890607D46FF02001C1
:1022900001612046BDE87040FFF741BE70BD0000FF
:1022A00000B585B000210091019102910391006871
:1022B000B0F1804F11D10A48816941F00401816178
:1022C0008069694600F00400049006200090022016
:1022D000019003900348FEF7D9FF05B000BD000050
:1022E0000010024000080140704770B5044690F8A5
:1022F0003C000D4601280AD0012084F83C0042B180
:10230000042A18D0082A2AD00C2A4DD139E00220FC
:1023100070BD206800F0A2FC2068816941F00801CE
:1023200081612068816921F00401816120688169EF
:102330002A69114311E0206800F0B8FC2068816927
:1023400041F4006181612068816921F480618161CB
:10235000206881692A6941EA0221816124E02068BC
:1023600000F0D0FC2068C16941F00801C16120681B
:10237000C16921F00401C1612068C1692A69114362
:1023800011E0206800F0EAFC2068C16941F40061B6
:10239000C1612068C16921F48061C1612068C1699F
:1023A0002A6941EA0221C161002084F83C0070BD25
:1023B00010B5040003D094F83D0010B107E00120EF
:1023C00010BD002084F83C00204600F01EF80220DA
:1023D00084F83D00211D206800F0EAFB012084F80C
:1023E000460084F83E0084F83F0084F8400084F8FA
:1023F000410084F8420084F8430084F8440084F8E3
:10240000450084F83D00002010BD70477047000073
:1024100010B50446022249B104290ED0082913D070
:1024200094F84100012816D0012010BD94F83E0018
:102430000128F9D184F83E200FE094F83F000128EC
:10244000F2D184F83F2008E094F840000128EBD155
:1024500084F8402001E084F841200122206800F047
:10246000DDFB0F492068884203D1426C42F40042F0
:1024700042642068884208D0B0F1804F05D00949F5
:10248000884202D00849884204D1816801F00701DE
:10249000062903D0016841F001010160002010BD50
:1024A000002C01400004004000080040006803497F
:1024B000884201D1FFF76EB9704700000008004064
:1024C000704770B5040004D094F83D00002510B1A9
:1024D00006E0012070BD84F83C50204600F022F850
:1024E000242084F83D002068C16821F40051C160B7
:1024F000204600F079FC2068016921F490410161D7
:102500002068416921F02A0141612068C16841F4D5
:102510000051C1602564202084F83D0084F83E000D
:10252000002070BD30B585B0002400940194029461
:10253000039400681449884224D11448816941F405
:1025400080418161816901F480410491816941F098
:102550000401816180690E4D00F0040004904FF485
:1025600000700090022001900320039069462846E5
:10257000FEF78CFE2815CDE9000469462846029432
:10258000FEF784FE05B030BD003801400010024067
:10259000000801402DE9F843044690F83D001F462D
:1025A00016460D4620284CD1C5B1BEB194F83C006A
:1025B000012846D0012084F83C004FF00008C4F800
:1025C0004080212084F83D00FEF756FFA684814616
:1025D000E684A068B0F5805F03D004E00120BDE888
:1025E000F883206928B12E465FF0000584F83C800E
:1025F0000EE00026FAE78021204600F051FCA0B949
:10260000AEB116F8010B21684860E08C401EE084F2
:10261000E08C4B464FF0000200970028EBD14FF0C2
:102620004001204600F03CFC30B10320D7E735F8EC
:10263000020BC0F30800E6E7202084F83D000020EC
:10264000CDE70220CBE7FEE701684A69D243520595
:102650000FD46FF480624A61002140F8301F2022BD
:1026600042738173026942F0040202610173012026
:102670007047002070470000F8B50446C06A1E4647
:102680000D461746082807D0012805D010F5803FD1
:1026900002D0206B122804D12068016841F48071B7
:1026A0000160134600224FF001112046009600F011
:1026B00057F840B120680068C00502D54FF400709B
:1026C00020640320F8BD2069B0F5804F0ED00620AD
:1026D000216800EAD51040F0F000086133463A4620
:1026E0000B49204600F070F878B902E005F0FE00D2
:1026F00000E0E8B221680861054933463A46891F7F
:10270000204600F061F80028DCD00120F8BD000070
:102710000800010070B516460D4604460DE020463F
:10272000FFF792FF08B1012070BD681C05D0FEF7CD
:10273000A3FE801BA84207D835B120684069C0437A
:102740004007ECD4002070BD002044F8300F202159
:102750006173A073216941F0200121612073E2E7D8
:102760002DE9F0471E4690460D460446C1F3074743
:10277000DDF8209008E0701C06D0FEF77DFEA0EB8F
:102780000900B0420FD876B12068012F18D08069B7
:1027900025EA00000004000C14D000214145EAD0D5
:1027A0000020BDE8F087002044F8300F202161733D
:1027B000A073216941F02001216120730120F0E71D
:1027C0004069E5E70121E9E72DE9F0479A4691469E
:1027D0000E46044600254FF02008C1F3074725E0C8
:1027E00020684069C043400514D42068016841F462
:1027F0000071016021686FF480604861256384F88E
:102800003D8084F83E50206C40F00400206484F841
:102810003C501FE0B9F1FF3F08D0FEF72DFEA0EBC2
:102820000A0149450CD8B9F1000F09D02068012FE1
:1028300013D0806926EA00000004000C0BD0CFE71B
:1028400044F8305F84F80D80A573206940F02000C3
:10285000206125730120BDE8F0874069EAE770B583
:1028600016460D4604460DE02046FFF7EDFE08B182
:10287000012070BD681C05D0FEF7FEFD801BA8423C
:1028800007D835B120684069C0430006ECD4002069
:1028900070BD002044F8300F20216173A0732169BE
:1028A00041F0200121612073E2E700003EB50024E1
:1028B00012480094019410490294016089158160C6
:1028C00004730475022505614FF460214460C16101
:1028D000FEF75EFA032000900120CDE9010469466D
:1028E0000648FEF7D3F90420CDE900056946034800
:1028F000FEF7CCF93EBD000000240140A8000020F6
:1029000070B586B000241C4800940194029403948E
:10291000816941F010018161816901F01001049128
:10292000816941F004018161816901F00401049130
:10293000816941F0080181618069104E00F0080052
:102940004FF400550490002229463046FEF78EFDD4
:102950000220CDE9024000950125694601953046E7
:10296000FEF794FC68028DE8310069460448FEF7E2
:102970008DFC06B070BD0000001002400010014048
:10298000000C014010B58EB00024079408940994FF
:102990000A940B941C2168460C94FDF738FC1948E6
:1029A0004FF0804101600721C0E9011440F2E73196
:1029B000C0E903148461FFF7E7FA4FF480500790F1
:1029C00007A91048FFF74CFB0E48FFF7F1FC0B94EA
:1029D0000BA90C480C94FFF7A3FA6020CDE9000482
:1029E00002940422694607480494FFF77EFC0822FB
:1029F00069460448FFF779FC0248FFF751FC0EB026
:102A000010BD00002C010020FEE77047144C4FF071
:102A1000FF37DFF85080A4F11C053E0D3A461049FF
:102A2000686901F055FE3A46A11C686901F050FE44
:102A3000208840F2E7314843B0FBF6F0D8F8002098
:102A400081B29163618840F2E7325143B1FBF6F104
:102A5000D8F8000089B2C163642001F015FCDDE7FD
:102A60001C0000202C010020184C4FF0FF36A4F170
:102A700030054FF47A7732461449286901F028FE70
:102A80003246211D286901F023FE0022114610481C
:102A900000F072FF2068FDF708FD02460B460DA10D
:102AA0000B4800F008FF00220121094800F064FFF4
:102AB0006068FDF7FAFC02460B4609A1044800F0E5
:102AC000FAFE384601F0E0FBD5E7000030000020B8
:102AD000C401002074656D70203A20253466200002
:102AE00068756D69203A20253466200010B55020A5
:102AF00080F31188BFF34F8FBFF36F8F01F024FF76
:102B000018B104494FF080500860002080F311880C
:102B100010BD000004ED00E030B593B028216846F8
:102B2000FDF775FB14210AA8FDF771FB00240120B5
:102B30000F94022504900095102011940590109494
:102B4000129407946846FFF759F80F20CDE90A045C
:102B50000C940D9400210AA80E94FEF743FF0FA8D1
:102B60000F951194FEF7C8FE13B030BD70470000FA
:102B70000A48816941F400618161094907200860C0
:102B8000091D4FF6FF7008600549012028390860CB
:102B9000034818380168C907FCD07047001002408C
:102BA000282C01400148FFF7C7BA00007404002038
:102BB000F0B50268164B174C174D4FF080479842FE
:102BC00005D0B84203D0A04201D0A84203D122F0E0
:102BD00070064A683243984205D0B84203D0A042FA
:102BE00001D0A84203D122F44074CA6822434C6940
:102BF00022F08002224302608A68C2620A6882620E
:102C0000984201D10969016301214161F0BD0000D1
:102C1000002C0140000400400008004010B501F005
:102C20001F030121046A99408C430462016A9A409F
:102C30001143016210BD10B5846842EA032224F4F6
:102C40007F440A432243826010BD826822F07002F2
:102C50000A4342F0070181607047000030B5026A04
:102C600022F001020262026A4368846924F073055B
:102C70000C682C4322F002058A682A430A4DA842B8
:102C80000BD122F00805CA6823F440732A434D692A
:102C900022F004021D438B692B4343608461496821
:102CA0004163026230BD0000002C014030B5026A71
:102CB00022F010020262026A436884690D6824F4FB
:102CC000E64444EA05248D6822F0200242EA051217
:102CD0000B4DA8420ED1CD6822F0800242EA0512C7
:102CE0004D6923F4406343EA85038D6922F0400275
:102CF00043EA85034360846149688163026230BDB1
:102D0000002C014030B5026A22F480720262036A2C
:102D10004268C46923F4007324F073050C682C43E3
:102D20008D6843EA05230C4DA8420ED1CD6823F4EB
:102D3000006343EA05234D6922F4405242EA05123A
:102D40008D6923F4806342EA05124260C4614968D8
:102D5000C163036230BD0000002C014030B5026A3F
:102D600022F480520262046A4268C3690D6823F447
:102D7000E64343EA05238D6824F4005444EA05340D
:102D8000064DA84204D14D6922F4804242EA8512E0
:102D90004260C36149680164046230BD002C014097
:102DA00010B5036A046A24F001040462846924F003
:102DB000F00444EA021423F00A020A438461026226
:102DC00010BD10B5036A23F0100303628369046A1F
:102DD00023F4704343EA023224F0A00343EA0111D2
:102DE0008261016210BD000070B50446006801698F
:102DF000E26821F44051114301612169A068084350
:102E0000616908432168CA6841F20C639A4302432E
:102E1000CA6020684169A26921F44071114341618F
:102E20001E492068884202D1FEF7A2FE01E0FEF7AB
:102E30008FFE00EBC00101EB00126068642180008E
:102E4000B2FBF0F3B3FBF1F36FF018067343B2FB80
:102E5000F0F5B2FBF0F605EB8305322303EB051525
:102E6000B5FBF1F5B6FBF1F605F0F00505EB06153F
:102E7000B2FBF0F6B2FBF0F0B0FBF1F06FF018022D
:102E8000504306EB800003EB0010B0FBF1F021682B
:102E900000F00F002844886070BD00000038014039
:102EA0002DE9F041984617460E460446069D1DE062
:102EB000681C1BD02DB1FEF7DFFAA0EB0800A8427A
:102EC00014D92068C16821F4D071C16020684169BB
:102ED00021F001014161202084F83D0084F83E008A
:102EE000002084F83C000320BDE8F08120680068E1
:102EF00036EA000004D00020B842D9D00020F3E721
:102F00000120F9E7FEE700000FB4084B10B504A953
:102F100002AA039800F000F9044602A9002000F07C
:102F200092FC204610BC5DF814FB000047380008F6
:102F300037B514460846064B6A46214600F0ECF8C1
:102F400004466946002000F07EFC20463EBD00009D
:102F5000473800080907090E002804DB00F1E020CB
:102F600080F80014704700F00F0000F1E02080F8B6
:102F7000141D704702E008C8121F08C1002AFAD1C8
:102F800070477047002001E001C1121F002AFBD1E9
:102F9000704700002DE9FF5F82B00021DDE90430B9
:102FA000020DDDF840B0034318D044F61050A2F2F1
:102FB000FF3242431514119801281FD0A5EB0B00D6
:102FC000401C5FEA000A4FF000064E4FDFF83891D0
:102FD000B046504615D5CAF1000413E011980124FB
:102FE0004AA3012801D16FEA0B010298119AC0E9A6
:102FF0000031C0E9024206B0BDE8F09FCBF100000D
:10300000DFE704460021404A491842EB0450CDE96D
:10301000001012E0E00707D032463B4640464946E2
:10302000FDF76EFB8046894632463B461046194600
:10303000FDF766FB06460F466410002CEAD1DDE979
:103040000401DDE90023BAF1000F06DAFDF758FBB1
:1030500042464B46FDF754FB05E0FDF791F9424629
:103060004B46FDF78DF904460E460022284BFDF72E
:10307000D1FB03D84FF0FF30014607E00022254B7B
:1030800020463146FDF7D5F8FDF7ACFB102409E0EA
:10309000002C0ADB0A220023FDF74CFA039B303296
:1030A0001A55641E50EA0102F2D1641C039AC4F15D
:1030B00011031444119A012A03D0012208430DD1AF
:1030C0000AE0084304D000204FF0110B119072E782
:1030D000A3EB0B056D1E0DE05B4504DD4FF0000218
:1030E00005F1010504E003DA4FF00002A5F1010546
:1030F000002AECD002981199C0E90231C0E90045DC
:1031000079E70000000014400000F03F30000000AC
:103110000000F0430000E03F2DE9FF4F95B09B46D3
:103120008946064600250FE2252877D10024274648
:10313000F84A0121059400E0044316F8013F203BC2
:1031400001FA03F01042F7D130782A2811D06FF03D
:103150002F033078A0F13002092A16D8059A44F0DE
:10316000020402EB820203EB42021044761C05903B
:10317000EFE759F8042B0592002A03DA504244F491
:103180000054059044F00204761C30782E2816D1A5
:1031900016F8010F44F004042A280DD06FF02F0216
:1031A0003078A0F13003092B09D807EB870302EB35
:1031B0004303C718761CF3E759F8047B761C307874
:1031C0006C280FD006DC4C2817D068280DD06A2850
:1031D00014D104E0742810D07A280FD10DE044F403
:1031E00000140AE044F4801401E044F440147278BE
:1031F000824202D104F58014761C761C3078662851
:103200000BD013DC582877D009DC002875D045286E
:10321000F6D04628F4D047281AD19DE118E063285B
:1032200035D0642879D0652812D195E1702873D003
:1032300008DC6728F1D069286FD06E280DD06F2880
:1032400006D1B5E073282CD0752875D0782874D0B5
:103250005A46179990476D1C75E1C4F30250022835
:1032600009D003280DD0D9F8001004280DD00D6026
:1032700009F1040967E1D9F80010EA17C1E9005221
:10328000F6E7D9F800100D80F2E70D70F0E719F8B5
:10329000041B8DF8001000208DF80100EA46012083
:1032A00003E059F804AB4FF0FF3061074FF0000125
:1032B00002D40DE008F101018846B9420FDA8045D9
:1032C000F8DB1AF808100029F4D108E008F1010130
:1032D00088468142FADB1AF808100029F6D10598D1
:1032E0005B46A0EB080721463846179A00F094FA8F
:1032F000284400EB080507E04DE029E10DE01AF84D
:10330000010B5A4617999047B8F10108F7D25B466E
:1033100021463846179A13E142E00A220092C4F38C
:1033200002524FF0000A022A08D059F804CB032AAF
:103330004FEAEC710AD00DE029E02AE009F107011B
:1033400021F00702F2E802C1914609E00FFA8CFC75
:103350004FEAEC71042A03D14FFA8CFC4FEAEC716E
:10336000002907DA0A460021DCF1000C61EB0201BA
:103370002D2202E0220504D52B228DF80420012203
:1033800003E0E20701D02022F7E7904659E00A2146
:1033900002E010220DE010214FF0000A00910BE036
:1033A00010224FF0000A44F004040827009203E0C2
:1033B00008224FF0000A0092C4F30252022A05D0FC
:1033C00059F804CB0021032A08D009E009F10701CC
:1033D00021F00702F2E802C1914605E01FFA8CFCD9
:1033E000042A01D10CF0FF0C4FF00008220728D569
:1033F000702806D0009B83F0100353EA0A0305D01F
:103400000EE040228DF80420012208E05CEA01026F
:1034100006D030228DF804208DF805000222904657
:10342000009B83F0080353EA0A030AD15CEA010215
:1034300001D1620705D530228DF804204FF0010834
:103440007F1E582804D034A003900EA802900DE0EF
:1034500036A0F9E753466046009AFDF76BF88446BC
:103460000398825C0298401E029002705CEA0100A0
:10347000F0D1029806A9081A00F1200A600702D5C7
:1034800024F4803400E00127574502DDA7EB0A0051
:1034900000E0002000EB0A01009005984144401A2A
:1034A0000590E00306D45B462146179A059800F084
:1034B000B3F90544002706E001A85A46C05D1799F4
:1034C00090476D1C7F1C4745F6DBE0030CD55B463F
:1034D0002146179A059800F09FF9054404E0302032
:1034E0005A46179990476D1C0099481E0090002974
:1034F000F5DC08E0029802995A460078491C0291CE
:10350000179990476D1CBAF10001AAF1010AF1DC8C
:1035100065E1000009280100303132333435363797
:10352000383961626364656600000000303132330F
:1035300034353637383941424344454600000000AF
:1035400000F058F90544761C307800287FF4ECAD83
:1035500019B02846BDE8F08F620700D4062709F1AC
:10356000070222F0070CFCE80223E14603F00048C2
:103570005FEA080C02D00FF2702C0DE05FEA045CE9
:1035800002D50FF2682C07E05FEAC47C02D00FF28C
:10359000602C01E0AFF2700C4FF0FF3823F00043D5
:1035A000CDF850C065280CD006DC452809D0462847
:1035B0001DD047283DD13DE0662818D067287ED130
:1035C00038E00021112F01DB112000E0781CCDE94B
:1035D000000106A90EA8FFF7DDFCDDE90F010E9A38
:1035E00003910021009207F1010A04914DE04FF090
:1035F00000400097CDE9011006A90EA8FFF7CAFC0C
:10360000DDE90F0203920E9B11990022DDF80CA058
:103610000093049211B9791C00EB010AB7EB0A0080
:1036200004D4C0F1FF3007F1010A0490AAEB0700AF
:10363000019044E0012F00DA01270021112F01DD64
:10364000112000E03846CDE9000106A90EA8FFF7D9
:10365000A1FCDDE90F010E9A039100210491009273
:10366000BA4621070CD40399514500DA8A46BAF1CB
:10367000010F05DD009AAAF10101515C302908D043
:10368000B84202DA10F1040F06DA0121CDE9011087
:1036900015E0AAF10101E9E7002805DC04990144DD
:1036A0000491AAEB000102E0411C514500DD8A466D
:1036B0000499401A401C01904FF0004002902007EE
:1036C00004D40198504501DBCDF8048000208DF82A
:1036D0004F0002980DF14F07B0F1004F25D02B207D
:1036E0000E9002984FF0020800280CDA4042029037
:1036F0002D200E9007E00A210298FCF705FF3031DB
:10370000029007F8011DB8F10001A8F10108F2DCF0
:1037100002980028EFD1791E0E980870307800F0DA
:10372000200040F0450007F8020D12A8C01B00F170
:1037300007081498007800B1012000EB0A010198F5
:1037400001EBE07105984144401A401E0590E003EA
:1037500006D45B462146179A059800F05DF80544AB
:103760001498007818B15A46179990476D1CE003D9
:1037700024D55B462146179A059800F04DF805447C
:103780001CE00498002807DBDDE90301884203DD23
:103790000098405C179901E0179930205A469047ED
:1037A000049805F10105401C04900198401E019009
:1037B00004D12E205A46179990476D1CBAF100018A
:1037C000AAF1010ADDDC05E017F8010B5A4617994A
:1037D00090476D1CB8F10001A8F10108F4DC5B46CC
:1037E0002146179A0598ABE62D0000002B0000003B
:1037F000200000002DE9F041044600251E46174632
:10380000880404D405E039462020B0476D1C641EAE
:10381000F9D52846BDE8F0812DE9F04104460025A0
:103820001E469046C80301D5302700E020278804B3
:1038300004D505E041463846B0476D1C641EF9D5F5
:103840002846BDE8F0810A68531C0B601070704771
:1038500010B50446416050002070207A332140F0BA
:1038600004002072204600F043F83221204600F088
:103870003FF80520FDF7F8FC0121204600F038F85C
:103880000520FDF7F1FC0C21204600F031F8052061
:10389000FDF7EAFC0221204600F02AF80520FDF79A
:1038A000E3FC8021204600F023F8204600F074F865
:1038B0000820607210BD0FB470B586B005460CAA22
:1038C00068460B99FFF734FB00246E4605E0315D36
:1038D000284600F02DF8641CE4B26846FCF7A2FC10
:1038E000A04201D9102CF2D306B070BC5DF814FBD5
:1038F0001CB501F0F002437A42F004041C438DF839
:10390000044013438DF805300901427A41F0040365
:103910001A438DF80620427A04230A438DF80720C3
:10392000642100910178406801AAFDF76FFE1CBD7B
:103930001CB501F0F002437A42F005041C4342F04A
:1039400001028DF8044013438DF805300901427AD5
:1039500041F005031A438DF80620427A41F0010137
:103960000A438DF807206421009101784068042300
:1039700001AAFDF74BFE1CBD08B506A31B6800930A
:103980001DF801101144C9B241F08001FFF7B0FFEA
:1039900008BD000000401454017A21F001010172B9
:1039A00041F00801FFF7A4BF8AB0FDF7FBFEFFF767
:1039B000B3F8FEF7A5FF4448416941F001014161B8
:1039C0004069002200F00100009011460B20FDF735
:1039D00061FF0B20FDF750FFFEF768FFFEF7D2FFF7
:1039E0003B483A49002401604FF41651C0E90114E4
:1039F0000C21C460C0E904418461C461FEF761FD2B
:103A0000334834499C3801603349C0E901144FF40C
:103A10008041C0E9034144618461C4610462FDF7EF
:103A200031FD2B4808214838FEF7F2FC28480421D4
:103A30004838FEF7EDFCFFF79BF8254927229C3913
:103A400001F1EC00FFF704FF1C22244902A8FCF757
:103A5000C5FB002102A800F071F8214C0023211DB4
:103A600020600220CDE9000180221EA1204800F044
:103A700005FF04F108010420CDE9000100238022A4
:103A80001CA11F4800F0FAFE04F10C010320CDE94F
:103A90000001002380221BA11D4800F0EFFE002240
:103AA0000421022000F0FCFC0221206100220846D3
:103AB00000F0F6FC60610648082216495C30FDF70C
:103AC00069F800F036F8FEE70010024000380140C7
:103AD0007401002000540040A0860100E04B000863
:103AE000000000205461736B204448540000000023
:103AF000D10B00085461736B5F4144430000000028
:103B0000AD0900085461736B5F50574D0000000011
:103B10000D2A00080008014001460020842900D039
:103B2000C81C704710B500B9012000F0ADFB0020A3
:103B300010BD10B500F0F4FB002010BD7FB50D46A0
:103B400004464169B0F9080081B1A16971B1FFF77C
:103B5000E3FFD4E905128DE80700D4E900102B46F5
:103B6000226900F0B8FE039004B070BDFFF7D4FFE7
:103B700003A9CDE90001208A2B4682B2D4E90010C6
:103B800000F07CFE012801D00020EDE70398EBE770
:103B90002DE9F041184C0F46054666692068001D66
:103BA00000F0AEFA38B9206890F82C100120884057
:103BB000A1698143A161681C07D137B12168BDE8C3
:103BC000F0410E48091D00F0DFBA20683544B542C7
:103BD0004560216805D2A068BDE8F041091D00F0EC
:103BE000BBBA6068091D00F0B7FA206B854200D2AD
:103BF0002563BDE8F0810000480000209805002002
:103C00002DE9F041054600F0CBFA2E4C2069401C0E
:103C1000206120682C4F10B1E06940B32DE0256091
:103C20002069012829D1002606EB860007EB8000D9
:103C300000F084FA761C072EF6D323488C3000F06F
:103C40007DFA2148A03000F079FA1F48B43000F026
:103C500075FA1D48C83000F071FA1B48DC3000F0DE
:103C60006DFA19488C3060601430A06005E020685F
:103C7000E96AC06A884200D82560E06A401CE062B8
:103C8000E96A0120A26988401043A06101EB81002C
:103C900007EB8000291D00F077FA00F0A1FAE06937
:103CA00000280CD02068E96AC06A884207D2074918
:103CB0004FF080500860BFF34F8FBFF36F8FBDE8A8
:103CC000F081000048000020BC04002004ED00E06A
:103CD00030B4026C0B46002A0BD0C1681144C1609D
:103CE0004468A14201D30168C16030BC1846FCF7AA
:103CF00075BA30BC70472DE9F041856B1746044614
:103D00000026026C82B1C7B1E068FCF767FAE1688F
:103D1000206C091AE1602268914202D26168081A97
:103D2000E060022F16D017E02068A8B9606800F0A4
:103D30006FFE0646002060600EE0A068FCF74EFAB9
:103D4000216CA0680844A0606168884204D32068A0
:103D5000A06001E005B16D1E6D1CA5633046BDE895
:103D6000F08110B5044690F8510058B101280CD0EC
:103D700002280FD0502080F31188BFF34F8FBFF37C
:103D80006F8FFEE7206B00F03FFA2046BDE8104041
:103D900000F03ABA10BD000010484FF440614207ED
:103DA00006D0C01D0D4920F00700411AC1F5406141
:103DB0000B4A00230144C2E900030839103A21F0FC
:103DC000070111604B600B600B1AC0E90013936090
:103DD0004FF000405360D06070470000AC050020F9
:103DE00094000020144E154CA6F1C8074FF08058DF
:103DF000DFF84C9012E000BF00F0D2F9F068C5681F
:103E0000281D00F07DF92069401E2061E068401EF9
:103E1000E06000F0E5F92846FFF7A3FFE06800281E
:103E2000EAD138680128F9D9C9F80080BFF34F8F6B
:103E3000BFF36F8FF2E700008405002048000020E8
:103E400004ED00E00346009829B10260C0E90F319B
:103E5000012100F049BB0060F8E72DE9F0479A46E0
:103E6000DDE9098481466FF00303206B03EB8202D6
:103E70001044089D20F00706700707D0502080F3FB
:103E80001188BFF34F8FBFF36F8FFEE723180A5CD3
:103E900083F834200A5C12B1401C1028F6D30027A6
:103EA00084F84370072D00D30625E562C4E9115755
:103EB000201D00F04EF904F1180000F04AF92461C9
:103EC000C5F107006462A061E76484F8507052464F
:103ED0004946304600F002F92060B8F1000F01D0E9
:103EE000C8F80040BDE8F08730B5114900E0114640
:103EF0000A688242FBD34B685C18844203D1406855
:103F000018444860084643681C18944209D1084C7C
:103F1000103C2468A24209D052681A4442600A68E0
:103F200012680260814200D0086030BD0460F9E789
:103F30009400002010B5044600F032F9A06B28B1BF
:103F40005FF0000400F04CF9204610BD0124F9E7B1
:103F500006484168096829B14168C968C968496863
:103F6000016370474FF0FF31FAE70000480000207E
:103F700008484068401C4FF0500080F3118804D07E
:103F8000BFF34F8FBFF36F8FFEE7BFF34F8FBFF3CA
:103F90006F8FFEE79C0000202DE9F041044600F001
:103FA000FFF894F9455004F1240609E0606A48B12D
:103FB000304600F079FD08B100F094F96D1E6DB245
:103FC000002DF3DC4FF0FF3684F8456000F008F96F
:103FD00000F0E6F894F9445004F1100709E0206974
:103FE00048B1384600F060FD08B100F07BF96D1E65
:103FF0006DB2002DF3DC84F84460BDE8F04100F0C0
:10400000EFB800002DE9F0410546002700F0BEF9A9
:10401000314E306808B9FFF7BFFEF06805424BD15A
:10402000C5B3083568070ED005F00700C0F10800D9
:104030000544680707D0502080F31188BFF34F8FE5
:10404000BFF36F8FFEE72DB37068854234D82248E6
:10405000103001460C6801E020460C466168A94218
:1040600002D221680029F7D131688C4224D0076838
:104070002168016060680837411B10290FD9601959
:10408000420708D0502080F31188BFF34F8FBFF351
:104090006F8FFEE710E041606560FFF725FF616804
:1040A0007068401A7060B268904200D2B060F068E8
:1040B00001430020C4E9000100F030FD780707D07B
:1040C000502080F31188BFF34F8FBFF36F8FFEE74F
:1040D0003846BDE8F08100008400002010B5031FC1
:1040E0004FF080741C601B1F21F001011960191F23
:1040F000024B0B60143940380A6010BD713F000854
:10410000D0E9013201699A60D0E901235A604A6816
:10411000824201D182684A60002202610868401E22
:104120000860086870470000034B036003F1540007
:1041300008608020106070472002002000F1080114
:104140004FF0FF32C0E90112C1600161002101603E
:10415000704700210161704730B50B685A1C02D0CE
:1041600000F1080202E0026904E022465468256872
:104170009D42FAD953684B6099608A60516008612A
:104180000168491C016030BD42684A6093688B60D9
:1041900093685960916008610168491C016070472B
:1041A000502080F31188BFF34F8FBFF36F8F0A4900
:1041B0004868401C486001280CD10848006810F08D
:1041C000FF0F07D0502080F31188BFF34F8FBFF34C
:1041D0006F8FFEE7704700009C00002004ED00E0B8
:1041E0000849486828B1401E486001D180F3118811
:1041F0007047502080F31188BFF34F8FBFF36F8F4C
:10420000FEE700009C00002070B5002827D0144D68
:10421000A0F108046168E868014207D1502080F3EA
:104220001188BFF34F8FBFF36F8FFEE722683AB15B
:10423000502080F31188BFF34F8FBFF36F8FFEE7DD
:104240008143616000F0A2F86068696808446860B2
:104250002046FFF749FEBDE8704000F05FBC70BD2E
:10426000840000204FF0E0200021016181610549B8
:104270004FF47A720968B1FBF2F1491E41610721DE
:10428000016170474400002010B5020014D00F48AF
:10429000806B38B1502080F31188BFF34F8FBFF38C
:1042A0006F8FFEE700F072F800211046FFF770FCF8
:1042B00000F034FC002807D105494FF08050086019
:1042C000BFF34F8FBFF36F8F10BD00004800002079
:1042D00004ED00E002498A6A026049694160704762
:1042E0004800002001490120486270474800002032
:1042F00010B50C4650B1094909681831FFF72CFF79
:104300002046BDE810400121FFF742BC502080F359
:104310001188BFF34F8FBFF36F8FFEE74800002077
:1043200010B586B00024039405AA04A903A8049438
:10433000FFF7FAFEDDE903010094CDE90110002347
:104340000EA11048059A00F0C6FA0F4900284863EC
:1043500011D0502080F31188BFF34F8FBFF36F8FC0
:104360004FF0FF3008630120C8614C6106B0BDE822
:10437000104000F041B806B010BD000049444C4563
:1043800000000000E53D0008480000200248816B65
:10439000491C816370470000480000201448816B6D
:1043A00011B1012141627047002141628169B1FA76
:1043B00081F1C1F11F0101EB81020E4951F8223058
:1043C0006BB101EB820101F108034A6852684A604F
:1043D0009A4201D152684A60D1680160704750200A
:1043E00080F31188BFF34F8FBFF36F8FFEE700009C
:1043F00048000020BC0400201CB526490878019024
:10440000FF20087008788DF800009DF800009DF8E6
:10441000002000F0F000904207D0502080F3118877
:10442000BFF34F8FBFF36F8FFEE79DF800001A4B6D
:1044300000F0500018700720986005E09DF80020FB
:1044400052008DF80020401E9DF800201206F5D481
:104450009860032807D0502080F31188BFF34F8F56
:10446000BFF36F8FFEE74FF44070986001980870BB
:104470000A48016841F470010160016841F070412F
:104480000160FFF7EFFE00205860FBF74BFE0020B5
:104490001CBD000000E400E09C00002020ED00E0D6
:1044A000F8B517460E46050014D0DEB105FB06F040
:1044B0004830FFF7A7FD04000AD0002084F846002A
:1044C00004F148023B46314628460094FFF7BAFC07
:1044D0002046F8BD502080F31188BFF34F8FBFF303
:1044E0006F8FFEE70020E3E770B50D46040025D08E
:1044F000FFF756FED4E90F20216802FB001161602E
:104500000021A1632168A1600A46D4E90F01401E81
:1045100000FB0121E16021464FF0FF3001F8440F1C
:10452000487004F110008DB1FFF708FE04F124007B
:10453000FFF704FEFFF754FE012070BD502080F30A
:104540001188BFF34F8FBFF36F8FFEE721690029FA
:10455000F0D000F0A9FA0028ECD004494FF08050C8
:104560000860BFF34F8FBFF36F8FE3E704ED00E008
:104570002DE9FF4782B01D468A464FF0000804002F
:1045800003D0BAF1000F08D011E0502080F3118859
:10459000BFF34F8FBFF36F8FFEE7206C38B1502011
:1045A00080F31188BFF34F8FBFF36F8FFEE7022DAB
:1045B0000AD1E06B012807D0502080F31188BFF3A7
:1045C0004F8FBFF36F8FFEE700F0B0F93F4F4FF012
:1045D00000094FF0805648B9049838B1502080F354
:1045E0001188BFF34F8FBFF36F8FFEE7FFF7D8FD42
:1045F000A06BE16B884207D3022D05D00498D0B19F
:10460000B8F1000F1AD01EE02A4651462046FFF7A7
:1046100072FB616A19B104F1240000F045FA20B17F
:104620003E60BFF34F8FBFF36F8FFFF7D9FD0120BF
:1046300006B0BDE8F087FFF7D3FD22E06846FFF73C
:1046400049FE4FF00108FFF7CBFDFFF79FFEFFF794
:10465000A7FD94F94400401C01D184F8449094F9DA
:104660004500401C01D184F84590FFF7B9FD04A92D
:10467000684600F0C9F830B12046FFF78DFC00F025
:104680004DFA0020D4E7FFF78BFDA06BE16B884269
:1046900013D1FFF7A5FD04F110000499FFF728FEE0
:1046A0002046FFF779FC00F039FA00289ED13E60E1
:1046B000BFF34F8FBFF36F8F98E7FFF791FD204651
:1046C000FFF76AFC00F02AFA90E7000004ED00E032
:1046D0002DE9F747002683B08A46040003D0BAF1DB
:1046E000000F08D011E0502080F31188BFF34F8FE6
:1046F000BFF36F8FFEE7206C38B1502080F3118834
:10470000BFF34F8FBFF36F8FFEE700F00FF9DFF8B5
:10471000F4804FF000094FF0805748B9059838B140
:10472000502080F31188BFF34F8FBFF36F8FFEE7E8
:10473000FFF736FDA56BC5B151462046FFF7C8FA15
:104740006D1EA563206950B104F1100000F0ACF9B2
:1047500028B1C8F80070BFF34F8FBFF36F8FFFF71A
:104760003FFD012006B0BDE8F087059808B11EB1F5
:1047700006E0FFF735FD27E06846FFF7ABFD0126B1
:10478000FFF72EFDFFF702FEFFF70AFD94F9440044
:10479000401C01D184F8449094F94500401C01D19B
:1047A00084F84590FFF71CFD05A9684600F02CF839
:1047B000002820460AD0FFF7EFFB00F0AFF92046B3
:1047C000FFF7B8FB0028B3D00020CBE7FFF7B2FB20
:1047D00090B104F124000599FFF78AFD2046FFF708
:1047E000DBFB00F09BF90028A2D1C8F80070BFF3F2
:1047F0004F8FBFF36F8F9BE72046FFF7CDFB00F095
:104800008DF995E704ED00E02DE9F0410C46050037
:1048100011D0C4B1FFF7C4FC174B5A696E68206809
:10482000911B471C17D02F689B6A9F4219D0964254
:1048300017D8012410E0502080F31188BFF34F8F68
:10484000BFF36F8FFEE7502080F31188BFF34F8FC7
:10485000BFF36F8FFEE70024FFF7C2FC2046BDE8E0
:10486000F081884205D9401A20602846FFF732FDC2
:10487000F1E700202060DCE7480000202DE9FF5F21
:104880008346DDE90E87994616468A469000FFF773
:10489000B9FB05001CD05420FFF7B4FB040014D072
:1048A0000020256384F85100CDE90240CDE900875E
:1048B0004B46324651465846FFF7CFFA2046FFF79F
:1048C0009FF9012004B0BDE8F09F2846FFF79CFC4B
:1048D0004FF0FF30F6E7F0B585B0DDE90B640A9DD7
:1048E000A6B1DCB1542700972663022684F85160F4
:1048F000002604AFCDE90246CDE90057FFF7ADFA37
:104900002046FFF77DF9049805B0F0BD502080F3F4
:104910001188BFF34F8FBFF36F8FFEE7502080F3F6
:104920001188BFF34F8FBFF36F8FFEE70548C16952
:1049300019B1806B18B10020704701207047022028
:1049400070470000480000202DE9F0412E4C002760
:10495000A06B40B1206A401C2062606A00B1012750
:104960003846BDE8F0816669761C666113D16068DF
:10497000006838B1502080F31188BFF34F8FBFF328
:104980006F8FFEE76068A1686160A060A06A401C4C
:10499000A062FFF7DDFA206BDFF87080864209D352
:1049A0006068006880B16068C068C56868688642F1
:1049B0000DD220632068C06A00EB800158F8210006
:1049C0000128CAD90127C8E74FF0FF30F1E7281DB9
:1049D000FFF796FBA86A18B105F11800FFF790FBE6
:1049E000E86A0121A26981401143A16100EB8001C5
:1049F00008EB8100291DFFF7C7FBE86A2168C96A37
:104A00008842CDD30127CBE748000020BC0400201A
:104A100070B504004FF0000140D0214D2868844259
:104A200007D0502080F31188BFF34F8FBFF36F8FF3
:104A3000FEE7A06C38B1401EA064636CE26A9A4243
:104A40002CD040B12AE0502080F31188BFF34F8F63
:104A5000BFF36F8FFEE7201DFFF752FB114A0121C4
:104A600050B9E06A00EB800352F8233023B9AB69F8
:104A700001FA00F08343AB61606CE062C0F10700B3
:104A8000A061E06AAB6981401943A96100EB800035
:104A900002EB8000211DFFF777FB0121084670BD66
:104AA00048000020BC0400202DE9F041C068C46823
:104AB000ACB104F118000746FFF722FB154DA86BB7
:104AC0000126A0B139461448FFF75EFBE06A296869
:104AD000C96A88421CD901206E62BDE8F08150206D
:104AE00080F31188BFF34F8FBFF36F8FFEE7201D58
:104AF000FFF706FBE16AAA6906FA01F01043A86114
:104B000001EB81000449B43901EB8000211DDBE792
:104B10000020E2E748000020700500202DE9F04762
:104B20002C4D00242746A86B38B1FFF739FBA86B42
:104B3000401EA863A86B40B146E0502080F3118866
:104B4000BFF34F8FBFF36F8FFEE72969224E01201D
:104B5000D1B3A6F1B40980463068E8B1F068C46802
:104B600004F11800FFF7CCFA201DFFF7C9FAE06A3C
:104B7000AA6908FA00F11143A96100EB800109EB71
:104B80008100211DFFF700FBE06A2968C96A88429D
:104B9000E2D3C5F82480DFE70CB1FFF7D9F92C6A1E
:104BA00044B14646FFF7D0FE00B16E62641EF9D1F3
:104BB00000202862686A38B1084901273807086070
:104BC000BFF34F8FBFF36F8FFFF70AFB3846BDE887
:104BD000F0870000480000207005002004ED00E090
:104BE000144C0008692A00080000000000000000C2
:104BF0008000000000000000000000000000000035
:104C0000000000000102030406070809000000007C
:104C10000102030464656661756C745461736B0012
:104C2000404C000800000020A8000000742F00087D
:104C3000E84C0008A800002008150000842F000898
:104C40000000000000000000000000000000000064
:104C50000000000000000000000000000000000054
:104C60000000000000000000000000000000000044
:104C70000000000000000000010000001000000023
:104C8000000000000024F40000000000000000000C
:104C90000000000000000000000000000000000014
:104CA0000000000000000000000000000000000004
:104CB00000000000000000000000000000000000F4
:104CC00000000000000000000000000000000000E4
:104CD00000000000000000000000000000000000D4
:084CE000AAAAAAAA0000000024
:04000005080000ED02
:00000001FF
