:020000040800F2
:100000002014002099010008830500084705000816
:100010008105000869030008F906000800000000D7
:1000200000000000000000000000000001010008C6
:10003000AD0300080000000045010008B5050008F8
:10004000B3010008B3010008B3010008B3010008C0
:10005000B3010008B3010008B3010008B3010008B0
:10006000B3010008B3010008B3010008B3010008A0
:10007000B3010008B3010008B3010008B301000890
:10008000B3010008B3010008B3010008B301000880
:10009000B3010008B3010008B3010008B301000870
:1000A000B3010008B3010008B3010008B301000860
:1000B000B3010008B3010008ED060008B301000811
:1000C000B3010008B3010008B3010008B301000840
:1000D000B3010008B3010008B3010008B301000830
:1000E000B3010008B3010008B3010008DFF80CD029
:1000F00000F076F800480047190700082014002097
:10010000224B19680868B0E8F00F80F30988BFF344
:100110006F8F4FF0000080F311884EF00D0E704786
:100120000000000006480068006880F3088862B696
:1001300061B6BFF34F8FBFF36F8F00DF00BF00BF0B
:1001400008ED00E0EFF30980BFF36F8F0F4B1A68E3
:1001500020E9F00F106008B54FF0500080F31188CF
:10016000BFF34F8FBFF36F8F00F032FF4FF00000EF
:1001700080F31188BDE8084019680868B0E8F00FFE
:1001800080F30988BFF36F8F704700BF34000020F1
:10019000EFF3058070470000064880470648004797
:1001A000FEE7FEE7FEE7FEE7FEE7FEE7FEE7FEE727
:1001B000FEE7FEE7E1050008ED00000840EA010364
:1001C0009B0703D009E008C9121F08C0042AFAD20D
:1001D00003E011F8013B00F8013B521EF9D27047D1
:1001E000064C074D06E0E06840F0010394E8070084
:1001F00098471034AC42F6D3FFF77CFF1418000880
:1002000034180008F0B5404A936943F400739361D1
:10021000936943F004039361936943F00803936186
:100220003A4A136800231360394A136823F0FF0326
:100230001360384A136843F480731360121D136807
:1002400043F002031360136843F480731360136870
:1002500023F400631360136843F46023136013688E
:1002600043F4801313602B4C00230C34072509E062
:100270002668CF5C07EB470705FA07F73E43266081
:100280005B1CDBB28342F3D3224B28331C68224D24
:1002900005EB00552C431C601E4E002330361F4CCE
:1002A000371F1EE0062B0DD2D6F800C011F803E070
:1002B00025780EFA05FE4CEA0E0CC6F800C06D1D3E
:1002C00025700CE0D7F800C011F803E065780EFA4D
:1002D00005FE4CEA0E0CC7F800C06D1D65705B1C76
:1002E000DBB28342DED3106840F004001060106877
:1002F0004007FCD5106840F001001060106840F421
:1003000080001060F0BD00000010024000080140B5
:10031000000C0140042401400000F0FF0000002018
:10032000044BDA6018615961986840F001009860E8
:1003300070470000000002400A4C4FF0FF37A4F164
:100340001C053E0D3A460749286900F0DBFF20886E
:1003500040F2E7314843B0FBF6F0C1B2022000F0B2
:10036000B3F9EFE720000020FEE700000D484169E7
:1003700041F0010141610C48816821F01001816068
:10038000816841F020018160816841F080018160D5
:10039000816841F480718160816841F4806181608D
:1003A000704700000010024000000240704700004B
:1003B000024881680278114481607047240000205F
:1003C00070477047704770B50446006801694FF088
:1003D0000005C943890715D4C168C943890711D4E9
:1003E000E91E01610120207720688069800720468E
:1003F00002D0FFF7E7FF04E000F098F8204600F095
:1004000096F8257720680169C943490717D4C16860
:10041000C943490713D46FF004010161022020771A
:100420002068806910F4407F204602D0FFF7CAFFA1
:1004300004E000F07BF8204600F079F8257720688A
:100440000169C943090716D4C168C943090712D411
:100450006FF008010161042020772068C0698007DF
:10046000204602D0FFF7AEFF04E000F05FF8204620
:1004700000F05DF8257720680169C943C90617D4E3
:10048000C168C943C90613D46FF010010161082087
:1004900020772068C06910F4407F204602D0FFF723
:1004A00091FF04E000F042F8204600F040F8257784
:1004B00020680169C943C90708D1C168C943C90790
:1004C00004D1891E0161204600F032F820680169DC
:1004D000C943090609D4C168C943090605D46FF0A8
:1004E000800101612046FFF76BFF20680169C94365
:1004F000490609D4C168C943490605D46FF04001D3
:100500000161204600F01EF820680169C943890690
:100510000BD4C168C943890607D46FF0200101617B
:100520002046BDE87040FFF74CBF70BD7047704774
:1005300000680349884201D1FFF73ABF70470000C5
:10054000000800407047FEE702220B490B48FFF706
:10055000E7FE094DA5F1180400231A460649206953
:1005600000F020FE00231A46A91C606900F01AFE64
:10057000322000F0A3FCEFE71C0000204C240140D7
:10058000FEE770470A4C4FF0FF37A4F11C053E0D03
:100590003A46A11C686900F0B5FE608840F2E73178
:1005A0004843B0FBF6F0C1B2012000F08DF8EFE750
:1005B0002000002010B5502080F31188BFF34F8F2A
:1005C000BFF36F8F00F0DAFF18B104494FF080508D
:1005D0000860002080F3118810BD000004ED00E0E9
:1005E0007047000032498A6942F004028A610023A0
:1005F000304A8904012806D0022816D0032826D0C4
:10060000042836D046E010686FF30F0010601068C1
:1006100040F00A001060086A40F001000862886932
:1006200040F0600088614B6334E010686FF30F00A6
:100630001060106840F0A0001060086A40F01000E0
:100640000862886940F4C04088618B6322E01068CA
:1006500020F470601060106840F420601060086A38
:1006600040F480700862C86940F06000C861CB63E4
:1006700010E0106820F470401060106840F42040D2
:100680001060086A40F480500862C86940F4C040B5
:10069000C8610B640720886240F2E730C8620868CE
:1006A00040F0010008600869C007FCD070470000F6
:1006B00000100240000801400248C16941F00101F8
:1006C000C1617047001002404FF08042012807D0FE
:1006D000022807D0032807D0042800D111647047EE
:1006E0005163704791637047D16370470148FFF7CA
:1006F0006ABE0000E8020020FEE702E008C8121F00
:1007000008C1002AFAD170477047002001E001C1FA
:10071000121F002AFBD170471CB51F490120CDE9EB
:100720000001002380221DA11E4800F0C1FE1A49CD
:100730000220091DCDE90001002380221AA11C48D6
:1007400000F0B6FE144903200831CDE90001002372
:10075000802215A1174800F0ABFE002202210120E3
:1007600000F0B8FC0C4C0022241F02212061012063
:1007700000F0B0FC606121460220FFF743FDFFF767
:10078000F5FDFFF799FF0120FFF72CFF0220FFF78F
:1007900029FF00F011F8FEE7080000205461736B98
:1007A00030300000850500085461736B3031000063
:1007B000390300084905000810B500F0CBFB002004
:1007C00010BD00002DE9F041184C0F460546666942
:1007D0002068001D00F0AEFA38B9206890F82C109F
:1007E00001208840A1698143A161681C07D137B10C
:1007F0002168BDE8F0410E48091D00F0DFBA20680D
:100800003544B5424560216805D2A068BDE8F04195
:10081000091D00F0BBBA6068091D00F0B7FA206B33
:10082000854200D22563BDE8F0810000340000203D
:100830000C0400202DE9F041054600F0CBFA2E4CC7
:100840002069401C206120682C4F10B1E06940B342
:100850002DE025602069012829D1002606EB8600BD
:1008600007EB800000F084FA761C072EF6D32348AD
:100870008C3000F07DFA2148A03000F079FA1F4852
:10088000B43000F075FA1D48C83000F071FA1B480A
:10089000DC3000F06DFA19488C3060601430A060D4
:1008A00005E02068E96AC06A884200D82560E06AED
:1008B000401CE062E96A0120A26988401043A061FF
:1008C00001EB810007EB8000291D00F077FA00F0B2
:1008D000A1FAE06900280CD02068E96AC06A884261
:1008E00007D207494FF080500860BFF34F8FBFF326
:1008F0006F8FBDE8F081000034000020300300203D
:1009000004ED00E030B4026C0B46002A0BD0C16845
:100910001144C1604468A14201D30168C16030BC88
:100920001846FFF74BBC30BC70472DE9F041856B92
:10093000174604460026026C82B1C7B1E068FFF793
:100940003DFCE168206C091AE1602268914202D204
:100950006168081AE060022F16D017E02068A8B975
:10096000606800F06FFE0646002060600EE0A06840
:10097000FFF724FC216CA0680844A06061688842ED
:1009800004D32068A06001E005B16D1E6D1CA56355
:100990003046BDE8F08110B5044690F8510058B1DA
:1009A00001280CD002280FD0502080F31188BFF30B
:1009B0004F8FBFF36F8FFEE7206B00F03FFA2046AA
:1009C000BDE8104000F03ABA10BD000010484FF4E6
:1009D0004061420706D0C01D0D4920F00700411AB2
:1009E000C1F540610B4A00230144C2E90003083904
:1009F000103A21F0070111604B600B600B1AC0E93F
:100A0000001393604FF000405360D06070470000C7
:100A10002004002080000020144E154CA6F1C807C9
:100A20004FF08058DFF84C9012E000BF00F0D2F990
:100A3000F068C568281D00F07DF92069401E20611E
:100A4000E068401EE06000F0E5F92846FFF7A3FFEC
:100A5000E0680028EAD138680128F9D9C9F800808F
:100A6000BFF34F8FBFF36F8FF2E70000F803002052
:100A70003400002004ED00E00346009829B1026034
:100A8000C0E90F31012100F049BB0060F8E72DE912
:100A9000F0479A46DDE9098481466FF00303206B35
:100AA00003EB82021044089D20F00706700707D070
:100AB000502080F31188BFF34F8FBFF36F8FFEE795
:100AC00023180A5C83F834200A5C12B1401C1028F9
:100AD000F6D3002784F84370072D00D30625E5627E
:100AE000C4E91157201D00F04EF904F1180000F080
:100AF0004AF92461C5F107006462A061E76484F8E3
:100B0000507052464946304600F002F92060B8F174
:100B1000000F01D0C8F80040BDE8F08730B511499A
:100B200000E011460A688242FBD34B685C1884429D
:100B300003D1406818444860084643681C18944232
:100B400009D1084C103C2468A24209D052681A44CA
:100B500042600A6812680260814200D0086030BDBD
:100B60000460F9E78000002010B5044600F032F977
:100B7000A06B28B15FF0000400F04CF9204610BDD6
:100B80000124F9E706484168096829B14168C96844
:100B9000C9684968016370474FF0FF31FAE7000008
:100BA0003400002008484068401C4FF0500080F39B
:100BB000118804D0BFF34F8FBFF36F8FFEE7BFF3F1
:100BC0004F8FBFF36F8FFEE7880000202DE9F041C3
:100BD000044600F0FFF894F9455004F1240609E0BA
:100BE000606A48B1304600F079FD08B100F094F930
:100BF0006D1E6DB2002DF3DC4FF0FF3684F84560BA
:100C000000F008F900F0E6F894F9445004F11007F8
:100C100009E0206948B1384600F060FD08B100F0F5
:100C20007BF96D1E6DB2002DF3DC84F84460BDE8E5
:100C3000F04100F0EFB800002DE9F0410546002733
:100C400000F0BEF9314E306808B9FFF7BFFEF0681A
:100C500005424BD1C5B3083568070ED005F0070033
:100C6000C0F108000544680707D0502080F31188C0
:100C7000BFF34F8FBFF36F8FFEE72DB370688542D0
:100C800034D82248103001460C6801E020460C465A
:100C90006168A94202D221680029F7D131688C42EB
:100CA00024D007682168016060680837411B10295B
:100CB0000FD96019420708D0502080F31188BFF384
:100CC0004F8FBFF36F8FFEE710E041606560FFF765
:100CD00025FF61687068401A7060B268904200D267
:100CE000B060F06801430020C4E9000100F030FD6D
:100CF000780707D0502080F31188BFF34F8FBFF3E0
:100D00006F8FFEE73846BDE8F081000070000020DC
:100D100010B5031F4FF080741C601B1F21F00101F0
:100D20001960191F024B0B60143940380A6010BD5E
:100D3000A50B0008D0E9013201699A60D0E90123CE
:100D40005A604A68824201D182684A600022026188
:100D50000868401E0860086870470000034B036085
:100D600003F1540008608020106070479400002058
:100D700000F108014FF0FF32C0E90112C1600161CA
:100D800000210160704700210161704730B50B6898
:100D90005A1C02D000F1080202E0026904E0224677
:100DA000546825689D42FAD953684B6099608A60FF
:100DB000516008610168491C016030BD42684A60A9
:100DC00093688B6093685960916008610168491C61
:100DD00001607047502080F31188BFF34F8FBFF33D
:100DE0006F8F0A494868401C486001280CD10848A8
:100DF000006810F0FF0F07D0502080F31188BFF378
:100E00004F8FBFF36F8FFEE7704700008800002010
:100E100004ED00E00849486828B1401E486001D14F
:100E200080F311887047502080F31188BFF34F8FF3
:100E3000BFF36F8FFEE700008800002070B5002828
:100E400027D0144DA0F108046168E868014207D179
:100E5000502080F31188BFF34F8FBFF36F8FFEE7F1
:100E600022683AB1502080F31188BFF34F8FBFF34F
:100E70006F8FFEE78143616000F0A2F860686968E7
:100E8000084468602046FFF749FEBDE8704000F066
:100E90005FBC70BD700000204FF0E02000210161B8
:100EA000816105494FF47A720968B1FBF2F1491E7C
:100EB00041610721016170473000002010B5020038
:100EC00014D00F48806B38B1502080F31188BFF3E5
:100ED0004F8FBFF36F8FFEE700F072F800211046CE
:100EE000FFF770FC00F034FC002807D105494FF0F3
:100EF00080500860BFF34F8FBFF36F8F10BD0000AD
:100F00003400002004ED00E002498A6A0260496969
:100F10004160704734000020014901204862704759
:100F20003400002010B50C4650B109490968183149
:100F3000FFF72CFF2046BDE810400121FFF742BC1F
:100F4000502080F31188BFF34F8FBFF36F8FFEE700
:100F50003400002010B586B00024039405AA04A92B
:100F600003A80494FFF7FAFEDDE903010094CDE93C
:100F7000011000230EA11048059A00F0C6FA0F498F
:100F80000028486311D0502080F31188BFF34F8FA1
:100F9000BFF36F8F4FF0FF3008630120C8614C61D1
:100FA00006B0BDE8104000F041B806B010BD00002A
:100FB00049444C4500000000190A00083400002094
:100FC0000248816B491C8163704700003400002097
:100FD0001448816B11B101214162704700214162C7
:100FE0008169B1FA81F1C1F11F0101EB81020E4962
:100FF00051F822306BB101EB820101F108034A681C
:1010000052684A609A4201D152684A60D1680160D0
:101010007047502080F31188BFF34F8FBFF36F8F5D
:10102000FEE7000034000020300300201CB52649F4
:1010300008780190FF20087008788DF800009DF86E
:1010400000009DF8002000F0F000904207D05020F2
:1010500080F31188BFF34F8FBFF36F8FFEE79DF8CA
:1010600000001A4B00F0500018700720986005E04F
:101070009DF8002052008DF80020401E9DF80020B1
:101080001206F5D49860032807D0502080F3118809
:10109000BFF34F8FBFF36F8FFEE74FF44070986040
:1010A000019808700A48016841F470010160016804
:1010B00041F070410160FFF7EFFE00205860FFF73C
:1010C00031F800201CBD000000E400E08800002092
:1010D00020ED00E0F8B517460E46050014D0DEB14D
:1010E00005FB06F04830FFF7A7FD04000AD00020FA
:1010F00084F8460004F148023B46314628460094F5
:10110000FFF7BAFC2046F8BD502080F31188BFF3EA
:101110004F8FBFF36F8FFEE70020E3E770B50D46FA
:10112000040025D0FFF756FED4E90F20216802FB0A
:10113000001161600021A1632168A1600A46D4E921
:101140000F01401E00FB0121E16021464FF0FF30FE
:1011500001F8440F487004F110008DB1FFF708FE4C
:1011600004F12400FFF704FEFFF754FE012070BDD8
:10117000502080F31188BFF34F8FBFF36F8FFEE7CE
:1011800021690029F0D000F0A9FA0028ECD0044928
:101190004FF080500860BFF34F8FBFF36F8FE3E7CE
:1011A00004ED00E02DE9FF4782B01D468A464FF06E
:1011B0000008040003D0BAF1000F08D011E050205D
:1011C00080F31188BFF34F8FBFF36F8FFEE7206C62
:1011D00038B1502080F31188BFF34F8FBFF36F8F6A
:1011E000FEE7022D0AD1E06B012807D0502080F3E2
:1011F0001188BFF34F8FBFF36F8FFEE700F0B0F998
:101200003F4F4FF000094FF0805648B9049838B16D
:10121000502080F31188BFF34F8FBFF36F8FFEE72D
:10122000FFF7D8FDA06BE16B884207D3022D05D0F4
:101230000498D0B1B8F1000F1AD01EE02A465146EA
:101240002046FFF772FB616A19B104F1240000F037
:1012500045FA20B13E60BFF34F8FBFF36F8FFFF7AA
:10126000D9FD012006B0BDE8F087FFF7D3FD22E0ED
:101270006846FFF749FE4FF00108FFF7CBFDFFF787
:101280009FFEFFF7A7FD94F94400401C01D184F8AC
:10129000449094F94500401C01D184F84590FFF733
:1012A000B9FD04A9684600F0C9F830B12046FFF73F
:1012B0008DFC00F04DFA0020D4E7FFF78BFDA06B0A
:1012C000E16B884213D1FFF7A5FD04F110000499EA
:1012D000FFF728FE2046FFF779FC00F039FA0028D6
:1012E0009ED13E60BFF34F8FBFF36F8F98E7FFF73C
:1012F00091FD2046FFF76AFC00F02AFA90E7000013
:1013000004ED00E02DE9F747002683B08A4604008B
:1013100003D0BAF1000F08D011E0502080F31188FB
:10132000BFF34F8FBFF36F8FFEE7206C38B15020B3
:1013300080F31188BFF34F8FBFF36F8FFEE700F08C
:101340000FF9DFF8F4804FF000094FF0805748B9EB
:10135000059838B1502080F31188BFF34F8FBFF349
:101360006F8FFEE7FFF736FDA56BC5B151462046EE
:10137000FFF7C8FA6D1EA563206950B104F1100093
:1013800000F0ACF928B1C8F80070BFF34F8FBFF37D
:101390006F8FFFF73FFD012006B0BDE8F08705988D
:1013A00008B11EB106E0FFF735FD27E06846FFF7FC
:1013B000ABFD0126FFF72EFDFFF702FEFFF70AFD4A
:1013C00094F94400401C01D184F8449094F94500FC
:1013D000401C01D184F84590FFF71CFD05A9684623
:1013E00000F02CF8002820460AD0FFF7EFFB00F0B1
:1013F000AFF92046FFF7B8FB0028B3D00020CBE7B9
:10140000FFF7B2FB90B104F124000599FFF78AFDC4
:101410002046FFF7DBFB00F09BF90028A2D1C8F8BB
:101420000070BFF34F8FBFF36F8F9BE72046FFF72E
:10143000CDFB00F08DF995E704ED00E02DE9F041DA
:101440000C46050011D0C4B1FFF7C4FC174B5A6914
:101450006E682068911B471C17D02F689B6A9F42BB
:1014600019D0964217D8012410E0502080F311883B
:10147000BFF34F8FBFF36F8FFEE7502080F31188CB
:10148000BFF34F8FBFF36F8FFEE70024FFF7C2FC5F
:101490002046BDE8F081884205D9401A20602846E0
:1014A000FFF732FDF1E700202060DCE73400002088
:1014B0002DE9FF5F8346DDE90E87994616468A4689
:1014C0009000FFF7B9FB05001CD05420FFF7B4FBD8
:1014D000040014D00020256384F85100CDE90240B7
:1014E000CDE900874B46324651465846FFF7CFFAC2
:1014F0002046FFF79FF9012004B0BDE8F09F284681
:10150000FFF79CFC4FF0FF30F6E7F0B585B0DDE962
:101510000B640A9DA6B1DCB154270097266302260E
:1015200084F85160002604AFCDE90246CDE90057AA
:10153000FFF7ADFA2046FFF77DF9049805B0F0BD3E
:10154000502080F31188BFF34F8FBFF36F8FFEE7FA
:10155000502080F31188BFF34F8FBFF36F8FFEE7EA
:101560000548C16919B1806B18B10020704701208E
:101570007047022070470000340000202DE9F04140
:101580002E4C0027A06B40B1206A401C2062606A8C
:1015900000B101273846BDE8F0816669761C6661B6
:1015A00013D16068006838B1502080F31188BFF310
:1015B0004F8FBFF36F8FFEE76068A1686160A06026
:1015C000A06A401CA062FFF7DDFA206BDFF8708094
:1015D000864209D36068006880B16068C068C568E9
:1015E000686886420DD220632068C06A00EB8001E3
:1015F00058F821000128CAD90127C8E74FF0FF3069
:10160000F1E7281DFFF796FBA86A18B105F118004D
:10161000FFF790FBE86A0121A26981401143A161B3
:1016200000EB800108EB8100291DFFF7C7FBE86A8A
:101630002168C96A8842CDD30127CBE73400002056
:101640003003002070B504004FF0000140D0214D60
:101650002868844207D0502080F31188BFF34F8F51
:10166000BFF36F8FFEE7A06C38B1401EA064636CBF
:10167000E26A9A422CD040B12AE0502080F31188CF
:10168000BFF34F8FBFF36F8FFEE7201DFFF752FBB5
:10169000114A012150B9E06A00EB800352F823306F
:1016A00023B9AB6901FA00F08343AB61606CE0627F
:1016B000C0F10700A061E06AAB6981401943A961EC
:1016C00000EB800002EB8000211DFFF777FB01217A
:1016D000084670BD34000020300300202DE9F041A1
:1016E000C068C468ACB104F118000746FFF722FBDC
:1016F000154DA86B0126A0B139461448FFF75EFBD3
:10170000E06A2968C96A88421CD901206E62BDE876
:10171000F081502080F31188BFF34F8FBFF36F8F9C
:10172000FEE7201DFFF706FBE16AAA6906FA01F051
:101730001043A86101EB81000449B43901EB80003A
:10174000211DDBE70020E2E734000020E403002055
:101750002DE9F0472C4D00242746A86B38B1FFF740
:1017600039FBA86B401EA863A86B40B146E050202F
:1017700080F31188BFF34F8FBFF36F8FFEE72969A6
:10178000224E0120D1B3A6F1B40980463068E8B1F9
:10179000F068C46804F11800FFF7CCFA201DFFF7C9
:1017A000C9FAE06AAA6908FA00F11143A96100EBDD
:1017B000800109EB8100211DFFF700FBE06A296829
:1017C000C96A8842E2D3C5F82480DFE70CB1FFF78D
:1017D000D9F92C6A44B14646FFF7D0FE00B16E62DB
:1017E000641EF9D100202862686A38B108490127CF
:1017F00038070860BFF34F8FBFF36F8FFFF70AFB07
:101800003846BDE8F087000034000020E4030020E3
:1018100004ED00E0341800080000002094000000EF
:10182000FA060008C8180008940000208C13000075
:101830000A07000800000000030400000000000088
:101840000000000000000000000000000000000098
:101850000000000000000000010000001000000077
:10186000000000000024F400000000000000000060
:101870000000000000000000000000000000000068
:101880000000000000000000000000000000000058
:101890000000000000000000000000000000000048
:1018A0000000000000000000000000000000000038
:1018B0000000000000000000000000000000000028
:0818C000AAAAAAAA0000000078
:04000005080000ED02
:00000001FF
