:020000040800F2
:100000001014002099010008D3030008CF03000852
:10001000D103000835020008290400080000000090
:1000200000000000000000000000000001010008C6
:10003000370200080000000045010008ED03000839
:10004000B3010008B3010008B3010008B3010008C0
:10005000B3010008B3010008B3010008B3010008B0
:10006000B3010008B3010008B3010008B3010008A0
:10007000B3010008B3010008B3010008B301000890
:10008000B3010008B3010008B3010008B301000880
:10009000B3010008B3010008B3010008B301000870
:1000A000B3010008B3010008B3010008B301000860
:1000B000B3010008B30100081D040008B3010008E3
:1000C000B3010008B3010008B3010008B301000840
:1000D000B3010008B3010008B3010008B301000830
:1000E000B3010008B3010008B3010008DFF80CD029
:1000F00000F076F80048004749040008101400207A
:10010000224B19680868B0E8F00F80F30988BFF344
:100110006F8F4FF0000080F311884EF00D0E704786
:100120000000000006480068006880F3088862B696
:1001300061B6BFF34F8FBFF36F8F00DF00BF00BF0B
:1001400008ED00E0EFF30980BFF36F8F0F4B1A68E3
:1001500020E9F00F106008B54FF0500080F31188CF
:10016000BFF34F8FBFF36F8F00F0CCFD4FF0000057
:1001700080F31188BDE8084019680868B0E8F00FFE
:1001800080F30988BFF36F8F704700BF2000002005
:10019000EFF3058070470000064880470648004797
:1001A000FEE7FEE7FEE7FEE7FEE7FEE7FEE7FEE727
:1001B000FEE7FEE719040008ED00000840EA01032D
:1001C0009B0703D009E008C9121F08C0042AFAD20D
:1001D00003E011F8013B00F8013B521EF9D27047D1
:1001E000064C074D06E0E06840F0010394E8070084
:1001F00098471034AC42F6D3FFF77CFF6C10000830
:100200008C1000080A4C4FF4FA752168491C2160D3
:10021000052902D1A06800F00FFD20680A2802D14C
:10022000A06800F095FC284600F06CFCEDE70000AB
:1002300000000020FEE77047024881680278114400
:10024000816070471000002070477047704770B59C
:100250000446006801694FF00005C943890715D4B9
:10026000C168C943890711D4E91E016101202077C3
:10027000206880698007204602D0FFF7E7FF04E08E
:1002800000F098F8204600F096F82577206801697C
:10029000C943490717D4C168C943490713D46FF04C
:1002A00004010161022020772068806910F4407FFA
:1002B000204602D0FFF7CAFF04E000F07BF820469A
:1002C00000F079F8257720680169C943090716D439
:1002D000C168C943090712D46FF008010161042005
:1002E00020772068C0698007204602D0FFF7AEFF64
:1002F00004E000F05FF8204600F05DF82577206804
:100300000169C943C90617D4C168C943C90613D4D2
:100310006FF010010161082020772068C06910F497
:10032000407F204602D0FFF791FF04E000F042F842
:10033000204600F040F8257720680169C943C907C5
:1003400008D1C168C943C90704D1891E016120468B
:1003500000F032F820680169C943090609D4C16870
:10036000C943090605D46FF0800101612046FFF7FB
:100370006BFF20680169C943490609D4C168C943B4
:10038000490605D46FF040010161204600F01EF8D7
:1003900020680169C94389060BD4C168C94389062D
:1003A00007D46FF0200101612046BDE87040FFF7DF
:1003B0004CBF70BD7047704700680349884201D147
:1003C000FFF73ABF70470000000800407047FEE7A3
:1003D000FEE77047044C4FF4FA756068401C60609B
:1003E000284600F05BF8F8E70000002010B5502028
:1003F00080F31188BFF34F8FBFF36F8F00F05CFD68
:1004000018B104494FF080500860002080F3118833
:1004100010BD000004ED00E0704700000148FFF748
:1004200016BF0000D4020020FEE702E008C8121F39
:1004300008C1002AFAD170477047002001E001C1CD
:10044000121F002AFBD170478AB01C220B4902A858
:10045000FFF7B4FE002102A800F02CF808490023A1
:10046000802288600C310420CDE9000105A10748F5
:1004700000F0CAFC00F019F8FEE700004410000884
:10048000000000205461736B303100000502000849
:1004900001460020842900D0C81C704710B500B95F
:1004A000012000F02FFB002010BD10B500F08EFBE6
:1004B000002010BD7FB50D4604464169B0F9080023
:1004C00081B1A16971B1FFF7E3FFD4E905128DE8AD
:1004D0000700D4E900102B46226900F0C2FC03900B
:1004E00004B070BDFFF7D4FF03A9CDE90001208A55
:1004F0002B4682B2D4E9001000F086FC012801D01E
:100500000020EDE70398EBE72DE9F041184C0F468A
:10051000054666692068001D00F030FA38B9206889
:1005200090F82C1001208840A1698143A161681CCA
:1005300007D137B12168BDE8F0410E48091D00F030
:1005400061BA20683544B5424560216805D2A0688B
:10055000BDE8F041091D00F03DBA6068091D00F0DA
:1005600039FA206B854200D22563BDE8F081000096
:1005700020000020F80300202DE9F041054600F09E
:100580004DFA2E4C2069401C206120682C4F10B180
:10059000E06940B32DE025602069012829D10026BB
:1005A00006EB860007EB800000F006FA761C072EAB
:1005B000F6D323488C3000F0FFF92148A03000F03A
:1005C000FBF91F48B43000F0F7F91D48C83000F0BF
:1005D000F3F91B48DC3000F0EFF919488C3060600B
:1005E0001430A06005E02068E96AC06A884200D83B
:1005F0002560E06A401CE062E96A0120A269884047
:100600001043A06101EB810007EB8000291D00F081
:10061000F9F900F023FAE06900280CD02068E96AB3
:10062000C06A884207D207494FF080500860BFF384
:100630004F8FBFF36F8FBDE8F081000020000020D6
:100640001C03002004ED00E010B5044690F85100B2
:1006500058B101280CD002280FD0502080F3118807
:10066000BFF34F8FBFF36F8FFEE7206B00F00AFAE6
:100670002046BDE8104000F005BA10BD10484FF408
:100680004061420706D0C01D0D4920F00700411A05
:10069000C1F540610B4A00230144C2E90003083957
:1006A000103A21F0070111604B600B600B1AC0E992
:1006B000001393604FF000405360D060704700001B
:1006C0000C0400206C000020144E154CA6F1C80745
:1006D0004FF08058DFF84C9012E000BF00F09EF918
:1006E000F068C568281D00F049F92069401E2061A6
:1006F000E068401EE06000F0B1F92846FFF7A4FF73
:10070000E0680028EAD138680128F9D9C9F80080E2
:10071000BFF34F8FBFF36F8FF2E70000E4030020B9
:100720002000002004ED00E02DE9F0479A46DDE9C5
:10073000098481466FF00303206B03EB82021044AF
:10074000089D20F00706700707D0502080F311881D
:10075000BFF34F8FBFF36F8FFEE723180A5C83F858
:1007600034200A5C12B1401C1028F6D3002784F80C
:100770004370072D00D30625E562C4E91157201DFB
:1007800000F025F904F1180000F021F92461C5F109
:1007900007006462A061E76484F8507052464946DD
:1007A000304600F0D9F82060B8F1000F01D0C8F849
:1007B0000040BDE8F087000030B5114900E0114667
:1007C0000A688242FBD34B685C18844203D14068BC
:1007D00018444860084643681C18944209D1084CE4
:1007E000103C2468A24209D052681A4442600A6848
:1007F00012680260814200D0086030BD0460F9E7F1
:100800006C00002006484168096829B14168C96840
:10081000C9684968016370474FF0FF31FAE700008B
:100820002000002008484068401C4FF0500080F332
:10083000118804D0BFF34F8FBFF36F8FFEE7BFF374
:100840004F8FBFF36F8FFEE774000020002150B17F
:100850000A4B42699A420FD1806AA3F12802904262
:100860000AD040B108E0502080F31188BFF34F8FC9
:10087000BFF36F8FFEE7012108467047F8030020A1
:100880002DE9F0410546002700F034FA314E30687A
:1008900008B9FFF7F3FEF06805424BD1C5B3083540
:1008A00068070ED005F00700C0F10800054468078E
:1008B00007D0502080F31188BFF34F8FBFF36F8FA5
:1008C000FEE72DB37068854234D8224810300146C7
:1008D0000C6801E020460C466168A94202D22168FA
:1008E0000029F7D131688C4224D007682168016063
:1008F00060680837411B10290FD96019420708D0DA
:10090000502080F31188BFF34F8FBFF36F8FFEE746
:1009100010E041606560FFF74FFF61687068401A42
:100920007060B268904200D2B060F068014300206D
:10093000C4E9000100F024FB780707D0502080F3C1
:100940001188BFF34F8FBFF36F8FFEE73846BDE8C6
:10095000F08100005C00002010B5031F4FF0807490
:100960001C601B1F21F001011960191F024B0B6055
:10097000143940380A6010BD25080008D0E901325A
:1009800001699A60D0E901235A604A68824201D124
:1009900082684A60002202610868401E0860086898
:1009A00070470000034B036003F15400086080208F
:1009B000106070478000002000F108014FF0FF3206
:1009C000C0E90112C160016100210160704700218E
:1009D0000161704730B50B685A1C02D000F1080263
:1009E00002E0026904E02246546825689D42FAD973
:1009F00053684B6099608A60516008610168491CC6
:100A0000016030BD42684A6093688B6093685960AA
:100A1000916008610168491C01607047502080F3B3
:100A20001188BFF34F8FBFF36F8F0A494868401C8E
:100A3000486001280CD10848006810F0FF0F07D06B
:100A4000502080F31188BFF34F8FBFF36F8FFEE705
:100A5000704700007400002004ED00E00849486879
:100A600028B1401E486001D180F3118870475020A2
:100A700080F31188BFF34F8FBFF36F8FFEE7000045
:100A80007400002070B5002827D0144DA0F1080490
:100A90006168E868014207D1502080F31188BFF3F4
:100AA0004F8FBFF36F8FFEE722683AB1502080F37B
:100AB0001188BFF34F8FBFF36F8FFEE781436160F3
:100AC00000F018F960686968084468602046FFF71C
:100AD00073FEBDE8704000F053BA70BD5C000020AA
:100AE0004FF0E02000210161816105494FF47A72E5
:100AF0000968B1FBF2F1491E4161072101617047AC
:100B00001C00002010B5020014D00F48806B38B1D3
:100B1000502080F31188BFF34F8FBFF36F8FFEE734
:100B200000F0E8F800211046FFF7EEFC00F028FA8C
:100B3000002807D105494FF080500860BFF34F8F60
:100B4000BFF36F8F10BD00002000002004ED00E017
:100B500070B504002BD01A4D286884422FD0FFF7BF
:100B60005DFF2046FFF772FEE8B1201DFFF706FF8C
:100B7000E06A0121AA6981401143A961114900EB92
:100B8000800001EB8000211DFFF73CFFE06A29682F
:100B9000C96A884207D30C494FF080500860BFF300
:100BA0004F8FBFF36F8FBDE87040FFF757BF5020E6
:100BB00080F31188BFF34F8FBFF36F8FFEE770BDD7
:100BC000200000201C03002004ED00E010B586B0DA
:100BD0000024039405AA04A903A80494FFF7E2FEE5
:100BE000DDE903010094CDE9011000230EA11048B6
:100BF000059A00F036F90F490028486311D05020BB
:100C000080F31188BFF34F8FBFF36F8F4FF0FF302A
:100C100008630120C8614C6106B0BDE8104000F0D7
:100C20009FB806B010BD000049444C4500000000CC
:100C3000C90600082000002070B50446FFF7EEFE4C
:100C4000294D04B92C68201DFFF798FE58B9E06AB9
:100C5000264A00EB800152F8211021B90121814080
:100C6000A8698843A861A06A18B104F11800FFF7C9
:100C700085FE1E48211DDC30FFF7C4FE94F85000AD
:100C80000026012801D184F85060FFF7E7FEE869EB
:100C900028B1FFF7C3FEFFF7B5FDFFF7DFFE2868B9
:100CA000844213D1E86990B1A86B38B1502080F329
:100CB0001188BFF34F8FBFF36F8FFEE70C494FF0E2
:100CC00080500860BFF34F8FBFF36F8F70BD074830
:100CD000DC3000682969884201D12E6070BDBDE812
:100CE000704000F00FB80000200000201C0300201E
:100CF00004ED00E00248816B491C816370470000ED
:100D0000200000201448816B11B10121416270471D
:100D1000002141628169B1FA81F1C1F11F0101EB4A
:100D200081020E4951F822306BB101EB820101F1D1
:100D300008034A6852684A609A4201D152684A6080
:100D4000D16801607047502080F31188BFF34F8F46
:100D5000BFF36F8FFEE70000200000201C0300207F
:100D60001CB5264908780190FF20087008788DF896
:100D700000009DF800009DF8002000F0F000904277
:100D800007D0502080F31188BFF34F8FBFF36F8FD0
:100D9000FEE79DF800001A4B00F050001870072085
:100DA000986005E09DF8002052008DF80020401E5C
:100DB0009DF800201206F5D49860032807D0502033
:100DC00080F31188BFF34F8FBFF36F8FFEE74FF4AF
:100DD00040709860019808700A48016841F47001F9
:100DE0000160016841F070410160FFF779FE002069
:100DF0005860FFF797F900201CBD000000E400E0F8
:100E00007400002020ED00E02DE9FF5F8346DDE95E
:100E10000E87994616468A469000FFF731FD050079
:100E20001CD05420FFF72CFD040014D000202563B3
:100E300084F85100CDE90240CDE900874B463246A7
:100E400051465846FFF770FC2046FFF795FB0120FE
:100E500004B0BDE8F09F2846FFF714FE4FF0FF30C6
:100E6000F6E7F0B585B0DDE90B640A9DA6B1DCB10B
:100E7000542700972663022684F85160002604AFA9
:100E8000CDE90246CDE90057FFF74EFC2046FFF7BB
:100E900073FB049805B0F0BD502080F31188BFF3B8
:100EA0004F8FBFF36F8FFEE7502080F31188BFF3A1
:100EB0004F8FBFF36F8FFEE72DE9F0412E4C0027D7
:100EC000A06B40B1206A401C2062606A00B101271B
:100ED0003846BDE8F0816669761C666113D16068AA
:100EE000006838B1502080F31188BFF34F8FBFF3F3
:100EF0006F8FFEE76068A1686160A060A06A401C17
:100F0000A062FFF77FFC206BDFF87080864209D378
:100F10006068006880B16068C068C56868688642BB
:100F20000DD220632068C06A00EB800158F82100D0
:100F30000128CAD90127C8E74FF0FF30F1E7281D83
:100F4000FFF71CFDA86A18B105F11800FFF716FDA0
:100F5000E86A0121A26981401143A16100EB80018F
:100F600008EB8100291DFFF74DFDE86A2168C96A79
:100F70008842CDD30127CBE7200000201C030020AE
:100F80002DE9F0472C4D00242746A86B38B1FFF718
:100F900045FDA86B401EA863A86B40B146E05020F9
:100FA00080F31188BFF34F8FBFF36F8FFEE729697E
:100FB000224E0120D1B3A6F1B40980463068E8B1D1
:100FC000F068C46804F11800FFF7D8FC201DFFF793
:100FD000D5FCE06AAA6908FA00F11143A96100EBA7
:100FE000800109EB8100211DFFF70CFDE06A2968F3
:100FF000C96A8842E2D3C5F82480DFE70CB1FFF765
:1010000001FC2C6A44B14646FFF756FF00B16E6200
:10101000641EF9D100202862686A38B108490127A6
:1010200038070860BFF34F8FBFF36F8FFFF716FDD0
:101030003846BDE8F087000020000020D0030020E3
:1010400004ED00E060100008D50300080000000077
:101050000000000080000000000000000000000010
:1010600064656661756C745461736B008C10000864
:1010700000000020800000002A0400080C11000875
:1010800080000020901300003A04000800000000D7
:10109000000000000000000000000000010000004F
:1010A00010000000000000000024F4000000000018
:1010B0000000000000000000000000000000000030
:1010C0000000000000000000000000000000000020
:1010D0000000000000000000000000000000000010
:1010E0000000000000000000000000000000000000
:1010F00000000000000000000000000000000000F0
:0C11000000000000AAAAAAAA000000003B
:04000005080000ED02
:00000001FF
