:020000040800F2
:100000009014002099010008690E0008CB0B00082D
:10001000670E0008910800085D100008000000004D
:1000200000000000000000000000000001010008C6
:10003000D50800080000000045010008190F00085D
:10004000B3010008B3010008B3010008B3010008C0
:10005000B3010008B3010008B3010008B3010008B0
:10006000B3010008B3010008B3010008B3010008A0
:10007000B3010008B3010008B3010008B301000890
:10008000B3010008B3010008B3010008B301000880
:10009000B3010008B3010008B3010008B301000870
:1000A000B3010008B3010008B3010008B301000860
:1000B000B3010008B301000851100008B3010008A3
:1000C000B3010008B3010008B3010008B301000840
:1000D000B3010008B3010008B3010008B301000830
:1000E000B3010008B3010008B3010008DFF80CD029
:1000F00000F00AFB00480047B91A000890140020DD
:10010000224B19680868B0E8F00F80F30988BFF344
:100110006F8F4FF0000080F311884EF00D0E704786
:100120000000000006480068006880F3088862B696
:1001300061B6BFF34F8FBFF36F8F00DF00BF00BF0B
:1001400008ED00E0EFF30980BFF36F8F0F4B1A68E3
:1001500020E9F00F106008B54FF0500080F31188CF
:10016000BFF34F8FBFF36F8F02F032F94FF00000F3
:1001700080F31188BDE8084019680868B0E8F00FFE
:1001800080F30988BFF36F8F704700BF44000020E1
:10019000EFF3058070470000064880470648004797
:1001A000FEE7FEE7FEE7FEE7FEE7FEE7FEE7FEE727
:1001B000FEE7FEE7450F0008ED000008202A04DBFB
:1001C000203A21FA02F00021704721FA02F3D040D0
:1001D000C2F12002914008431946704740EA0103EA
:1001E0009B0703D009E008C9121F08C0042AFAD2ED
:1001F00003E011F8013B00F8013B521EF9D27047B1
:10020000421C10F8011B0029FBD1801A70472DE910
:10021000FE4F804681EA0300C00F0C46009021F09B
:10022000004123F00045B8EB0200A94105D2404649
:10023000214690461C460B46024623F000401043E0
:1002400047D0270DC7F30A00C3F30A510290401AA2
:10025000019040286BDAC3F3130040F4801B009830
:10026000924620B10023D2EB030A63EB0B0B0198FB
:100270005946C0F14002504600F026F906460D46A8
:1002800050465946019A00F02EF910EB08006141E2
:10029000002487EA115284EAE7731A4340D0009A97
:1002A00062B3019A012A4FEA075215DC001B61EB89
:1002B00002014FF0004202EA0752CDE90042001C61
:1002C00041F5801132462B4600F02EF903B0BDE80F
:1002D000F08F40462146F9E7001B61EB0201001C4C
:1002E00041F5801300185B412018A2F5001747EB79
:1002F000030140EAD570B6196D4111E06D084FEA6F
:10030000360645EAC0754FEA0752001B61EB020151
:10031000001C41F5801149084FEA30000019514195
:1003200032462B4603B0BDE8F04F00F0EEB800981F
:10033000012240000023D0EB020263EBE07300983F
:1003400021464FEAE074B8EB000061EB0401E9E7F5
:1003500083F000435BE781F0004158E72DE9F04D61
:1003600081EA030404F0004B21F0004514464FF0ED
:10037000000A23F0004150EA050220D054EA0102AD
:100380001DD0C5F30A570246C5F31303C1F313008A
:10039000C1F30A5640F4801543F48013A7EB060816
:1003A000101BD64608F2FD3873EB050002D308F1A6
:1003B000010801E092185B41B8F1000F03DA002058
:1003C0000146BDE8F08D00204FF4801106468446BA
:1003D0000EE0171B73EB050705D3121B63EB050338
:1003E00006434CEA010C49084FEA300092185B4181
:1003F00050EA0107EDD152EA030012D082EA04006C
:1004000083EA0501084305D0101BAB4106D2012247
:10041000002306E000224FF0004302E06FF00102EB
:1004200053101AEB06004CEB085110EB0A0041EB9D
:100430000B01BDE8F04D00F068B830B50B46014641
:1004400000202022012409E021FA02F59D4205D373
:1004500003FA02F5491B04FA02F52844151EA2F11D
:100460000102F1DC30BD2DE9F05F05460020924627
:100470009B4688460646814640241BE02846414666
:1004800047462246FFF79AFE53465A46C01A914104
:1004900010D311461846224600F016F82D1A67EBC5
:1004A00001084F4622460120002100F00DF817EB0D
:1004B00000094E41201EA4F10104DFDC484631460C
:1004C0002A464346BDE8F09F202A04DB203A00FA82
:1004D00002F1002070479140C2F1200320FA03F39B
:1004E000194390407047202A06DBCB17203A41FA87
:1004F00002F043EAE07306E041FA02F3D040C2F1B1
:100500002002914008431946704710B5141E73F13C
:10051000000408DA401C41F1000192185B411A43C3
:1005200001D120F0010010BD2DE9F04D92469B460F
:1005300011B1B1FA81F202E0B0FA80F220329046B5
:10054000FFF7C2FF04460F4640EA0A0041EA0B01EA
:1005500053465A46084313D0114653EA010019D0B6
:10056000C8F140025046FFF729FE05460E465046A8
:1005700059464246FFF7A8FF084305D0012004E092
:1005800020463946BDE8F08D0020054346EAE07676
:100590002C4337430A986305E40AA0EB08000022C5
:1005A000FD0A44EA47540A3002D500200146E9E733
:1005B000010510196941DDE9084500196941BDE8E7
:1005C000F04DA2E72DE9FE4F81EA030404F0004458
:1005D00021F0004100944FF0000B23F0004350EA5B
:1005E00001045ED052EA03045BD0C3F30A54C1F3A2
:1005F0000A552C44A4F2F3340194A0FB0254C1F335
:10060000130141F48011C3F3130343F4801301FB7E
:10061000024400FB034E840A970A44EA815447EAE5
:100620008357A4FB076802958D0A05FB07854FEAEF
:10063000932C04FB0C542705029D4FEA065847EA09
:100640001637B5EB08056EEB070C870E920E47EADE
:10065000811742EA8312A7FB0201B6EB0B0164EBA0
:1006600000042B0D43EA0C335E1844EB1C50DA46B1
:100670005146E7FB0201C5F313044FEA0B3343EA8B
:1006800014534FEA0432019C43EA0603A4F10C041C
:100690000294009CCDE900B4FFF746FF03B0BDE82B
:1006A000F08F00200146F9E7C1F30A52C1F31301AC
:1006B00040F2FF3341F480119A4202DA00200146F1
:1006C000704740F233439A42A2F2334202DC524274
:1006D000FFF774BDFFF7F8BE30B5041E71F10004DA
:1006E00004DB4FF00044404264EB0101141E73F13F
:1006F000000405DB1C464FF00043524263EB040349
:10070000994208BF904230BD064C074D06E0E068B4
:1007100040F0010394E8070098471034AC42F6D348
:10072000FFF7E8FC142C0008342C0008F0B5404A10
:10073000936943F400739361936943F004039361F5
:10074000936943F0080393613A4A136800231360E6
:10075000394A136823F0FF031360384A136843F4DF
:1007600080731360121D136843F002031360136853
:1007700043F480731360136823F4006313601368F9
:1007800043F460231360136843F4801313602B4C0D
:1007900000230C34072509E02668CF5C07EB4707E8
:1007A00005FA07F73E4326605B1CDBB28342F3D3B6
:1007B000224B28331C68224D05EB00552C431C604E
:1007C0001E4E002330361F4C371F1EE0062B0DD265
:1007D000D6F800C011F803E025780EFA05FE4CEAC1
:1007E0000E0CC6F800C06D1D25700CE0D7F800C0D7
:1007F00011F803E065780EFA05FE4CEA0E0CC7F816
:1008000000C06D1D65705B1CDBB28342DED31068D7
:1008100040F00400106010684007FCD5106840F0FC
:1008200001001060106840F480001060F0BD00000E
:100830000010024000080140000C01400424014067
:100840000000F0FF00000020044BDA6018615961DD
:10085000986840F001009860704700000000024076
:100860000A4C4FF0FF37A4F12C053E0D3A460749DC
:10087000E86901F047FF208840F2E7314843B0FBC8
:10088000F6F081B2022000F0D1FBEFE7300000204B
:10089000FEE700000D48416941F0010141610C484B
:1008A000816821F010018160816841F02001816040
:1008B000816841F080018160816841F480718160CC
:1008C000816841F48061816070470000001002403F
:1008D000000002407047000070B5044600F00EF8BA
:1008E0000546601C02D004480078044400F006F875
:1008F000401BA042FAD370BD34000020014880683C
:1009000070470000340000202DE9F84F1F46904644
:100910008A460446DDF82890FFF7F0FF054694F874
:100920003D0020287FD1192301224049204600950F
:1009300000F0F4F9002876D194F83C00012872D038
:10094000012084F83C0020680168C90703D10168D0
:1009500041F0010101602068016821F4006101603B
:10096000212084F83D00102084F83E0000262664F3
:10097000C4F824806785608D20852D48E0622B4671
:100980004A465146204600F055F990B92068416921
:100990008069009036E02A464946204600F03DFA3C
:1009A00050B1206C042804D12068016841F4007122
:1009B00001600120BDE8F88F606A21680078086155
:1009C000606A401C6062618D491E6185218D491EEF
:1009D00089B2218522685369DB435B070BD451B18F
:1009E00000781061606A401C6062608D401E608506
:1009F000208D401E20852A464946204600F068F991
:100A00000028CED1208D0028C5D154F83D0B0168B7
:100A100041F400710160202004F81E09E677667732
:100A20000020C7E7FFE70220C4E700000200100033
:100A30000000FFFF0248816802781144816070471E
:100A40003400002070477047704770B50446006856
:100A500001694FF00005C943890715D4C168C9432E
:100A6000890711D4E91E016101202077206880697F
:100A70008007204602D0FFF7E7FF04E000F098F877
:100A8000204600F096F8257720680169C943490798
:100A900017D4C168C943490713D46FF00401016139
:100AA000022020772068806910F4407F204602D021
:100AB000FFF7CAFF04E000F07BF8204600F079F869
:100AC000257720680169C943090716D4C168C9435D
:100AD000090712D46FF00801016104202077206813
:100AE000C0698007204602D0FFF7AEFF04E000F0A7
:100AF0005FF8204600F05DF8257720680169C9435A
:100B0000C90617D4C168C943C90613D46FF01001D0
:100B10000161082020772068C06910F4407F2046DA
:100B200002D0FFF791FF04E000F042F8204600F009
:100B300040F8257720680169C943C90708D1C16811
:100B4000C943C90704D1891E0161204600F032F86B
:100B500020680169C943090609D4C168C943090667
:100B600005D46FF0800101612046FFF76BFF20681C
:100B70000169C943490609D4C168C943490605D476
:100B80006FF040010161204600F01EF82068016905
:100B9000C94389060BD4C168C943890607D46FF0DD
:100BA000200101612046BDE87040FFF74CBF70BDD9
:100BB0007047704700680349884201D1FFF73ABF88
:100BC00070470000000800407047FEE702220B4912
:100BD0000B48FFF739FE094DA5F1280400231A46FA
:100BE0000649E06901F0DEFC00231A46A91C206AD0
:100BF00001F0D8FC322001F061FBEFE72C0000206F
:100C00004C24014001684A69D24352050FD46FF465
:100C100080624A61002140F8301F202242738173B4
:100C2000026942F004020261017301207047002052
:100C300070470000F8B50446C06A1E460D461746C8
:100C4000082807D0012805D010F5803F02D0206B7E
:100C5000122804D12068016841F4807101601346B4
:100C600000224FF001112046009600F057F840B1E5
:100C700020680068C00502D54FF40070206403208E
:100C8000F8BD2069B0F5804F0ED00620216800EA3B
:100C9000D51040F0F000086133463A460B49204633
:100CA00000F070F878B902E005F0FE0000E0E8B26C
:100CB00021680861054933463A46891F204600F0FD
:100CC00061F80028DCD00120F8BD00000800010018
:100CD00070B516460D4604460DE02046FFF792FF1C
:100CE00008B1012070BD681C05D0FFF707FE801B0E
:100CF000A84207D835B120684069C0434007ECD40A
:100D0000002070BD002044F8300F20216173A073D3
:100D1000216941F0200121612073E2E72DE9F047CC
:100D20001E4690460D460446C1F30747DDF8209065
:100D300008E0701C06D0FFF7E1FDA0EB0900B0420F
:100D40000FD876B12068012F18D0806925EA0000FD
:100D50000004000C14D000214145EAD00020BDE879
:100D6000F087002044F8300F20216173A0732169BF
:100D700041F02001216120730120F0E74069E5E79F
:100D80000121E9E72DE9F0479A4691460E460446CF
:100D900000254FF02008C1F3074725E0206840698F
:100DA000C043400514D42068016841F4007101601B
:100DB00021686FF480604861256384F83D8084F881
:100DC0003E50206C40F00400206484F83C501FE04A
:100DD000B9F1FF3F08D0FFF791FDA0EB0A014945AB
:100DE0000CD8B9F1000F09D02068012F13D0806909
:100DF00026EA00000004000C0BD0CFE744F8305F77
:100E000084F80D80A573206940F0200020612573CF
:100E10000120BDE8F0874069EAE770B516460D4647
:100E200004460DE02046FFF7EDFE08B1012070BD3D
:100E3000681C05D0FFF762FD801BA84207D835B1BA
:100E400020684069C0430006ECD4002070BD00203B
:100E500044F8300F20216173A073216941F0200113
:100E600021612073E2E7FEE77047000010B5002221
:100E700011460C4800F008FE0B4C0CA109486378A1
:100E8000227800F0A0FD00231A462146606A01F096
:100E900089FB0023611C606ABDE810401A4601F01E
:100EA00081BB0000F80000200400002054656D7034
:100EB0003A2025326420204C756D693A2025326431
:100EC00000000000074D4FF0FF362C1F3246054949
:100ED000606A01F017FC3246691C606A01F012FC7E
:100EE000F4E70000080000200A4C4FF0FF37A4F19F
:100EF0002C053E0D3A46A11C286A01F003FC6088CF
:100F000040F2E7314843B0FBF6F081B2032000F035
:100F10008DF8EFE73000002010B5502080F31188E5
:100F2000BFF34F8FBFF36F8F01F028FD18B1044955
:100F30004FF080500860002080F3118810BD000041
:100F400004ED00E07047000032498A6942F0040273
:100F50008A610023304A8904012806D0022816D06D
:100F6000032826D0042836D046E010686FF30F001F
:100F70001060106840F00A001060086A40F001003C
:100F80000862886940F0600088614B6334E0106853
:100F90006FF30F001060106840F0A0001060086A46
:100FA00040F010000862886940F4C04088618B639B
:100FB00022E0106820F470601060106840F4206037
:100FC0001060086A40F480700862C86940F06000F0
:100FD000C861CB6310E0106820F4704010601068A6
:100FE00040F420401060086A40F480500862C869EC
:100FF00040F4C040C8610B640720886240F2E730CB
:10100000C862086840F0010008600869C007FCD0A9
:101010007047000000100240000801400248C1690A
:1010200041F00101C1617047001002404FF0804261
:10103000012807D0022807D0032807D0042800D1B0
:10104000116470475163704791637047D163704773
:101050000148FFF7FABC000058030020FEE700003B
:1010600037B514460846064B6A46214600F0DCF8C0
:1010700004466946002000F06EFC20463EBD00009C
:101080005719000802E008C8121F08C1002AFAD147
:1010900070477047002001E001C1121F002AFBD1F8
:1010A000704700002DE9FF5F82B00021DDE90430C8
:1010B000020DDDF840B0034318D044F61050A2F200
:1010C000FF3242431514119801281FD0A5EB0B00E5
:1010D000401C5FEA000A4FF000064E4FDFF83891DF
:1010E000B046504615D5CAF1000413E0119801240A
:1010F0004AA3012801D16FEA0B010298119AC0E9B5
:101100000031C0E9024206B0BDE8F09FCBF100001B
:10111000DFE704460021404A491842EB0450CDE97C
:10112000001012E0E00707D032463B4640464946F1
:10113000FFF748FA8046894632463B461046194634
:10114000FFF740FA06460F466410002CEAD1DDE9AD
:101150000401DDE90023BAF1000F06DAFFF732FAE5
:1011600042464B46FFF72EFA05E0FFF7F7F84246F6
:101170004B46FFF7F3F804460E460022284BFFF7D4
:10118000ABFA03D84FF0FF30014607E00022254BB1
:1011900020463146FFF73BF8FFF786FA102409E0B6
:1011A000002C0ADB0A220023FFF75DF9039B303293
:1011B0001A55641E50EA0102F2D1641C039AC4F16C
:1011C00011031444119A012A03D0012208430DD1BE
:1011D0000AE0084304D000204FF0110B119072E791
:1011E000A3EB0B056D1E0DE05B4504DD4FF0000227
:1011F00005F1010504E003DA4FF00002A5F1010555
:10120000002AECD002981199C0E90231C0E90045EA
:1012100079E70000000014400000F03F30000000BB
:101220000000F0430000E03F2DE9FF4F95B09B46E2
:101230008946064600250FE2252877D10024274657
:10124000F84A0121059400E0044316F8013F203BD1
:1012500001FA03F01042F7D130782A2811D06FF04C
:101260002F033078A0F13002092A16D8059A44F0ED
:10127000020402EB820203EB42021044761C05904A
:10128000EFE759F8042B0592002A03DA504244F4A0
:101290000054059044F00204761C30782E2816D1B4
:1012A00016F8010F44F004042A280DD06FF02F0225
:1012B0003078A0F13003092B09D807EB870302EB44
:1012C0004303C718761CF3E759F8047B761C307883
:1012D0006C280FD006DC4C2817D068280DD06A285F
:1012E00014D104E0742810D07A280FD10DE044F412
:1012F00000140AE044F4801401E044F440147278CD
:10130000824202D104F58014761C761C307866285F
:101310000BD013DC582877D009DC002875D045287D
:10132000F6D04628F4D047281AD19DE118E063286A
:1013300035D0642879D0652812D195E1702873D012
:1013400008DC6728F1D069286FD06E280DD06F288F
:1013500006D1B5E073282CD0752875D0782874D0C4
:101360005A46179990476D1C75E1C4F30250022844
:1013700009D003280DD0D9F8001004280DD00D6035
:1013800009F1040967E1D9F80010EA17C1E9005230
:10139000F6E7D9F800100D80F2E70D70F0E719F8C4
:1013A000041B8DF8001000208DF80100EA46012092
:1013B00003E059F804AB4FF0FF3061074FF0000134
:1013C00002D40DE008F101018846B9420FDA8045E8
:1013D000F8DB1AF808100029F4D108E008F101013F
:1013E00088468142FADB1AF808100029F6D10598E0
:1013F0005B46A0EB080721463846179A00F094FA9E
:10140000284400EB080507E04DE029E10DE01AF85B
:10141000010B5A4617999047B8F10108F7D25B467D
:1014200021463846179A13E142E00A220092C4F39B
:1014300002524FF0000A022A08D059F804CB032ABE
:101440004FEAEC710AD00DE029E02AE009F107012A
:1014500021F00702F2E802C1914609E00FFA8CFC84
:101460004FEAEC71042A03D14FFA8CFC4FEAEC717D
:10147000002907DA0A460021DCF1000C61EB0201C9
:101480002D2202E0220504D52B228DF80420012212
:1014900003E0E20701D02022F7E7904659E00A2155
:1014A00002E010220DE010214FF0000A00910BE045
:1014B00010224FF0000A44F004040827009203E0D1
:1014C00008224FF0000A0092C4F30252022A05D00B
:1014D00059F804CB0021032A08D009E009F10701DB
:1014E00021F00702F2E802C1914605E01FFA8CFCE8
:1014F000042A01D10CF0FF0C4FF00008220728D578
:10150000702806D0009B83F0100353EA0A0305D02D
:101510000EE040228DF80420012208E05CEA01027E
:1015200006D030228DF804208DF805000222904666
:10153000009B83F0080353EA0A030AD15CEA010224
:1015400001D1620705D530228DF804204FF0010843
:101550007F1E582804D034A003900EA802900DE0FE
:1015600036A0F9E753466046009AFEF77CFF8446B2
:101570000398825C0298401E029002705CEA0100AF
:10158000F0D1029806A9081A00F1200A600702D5D6
:1015900024F4803400E00127574502DDA7EB0A0060
:1015A00000E0002000EB0A01009005984144401A39
:1015B0000590E00306D45B462146179A059800F093
:1015C000B3F90544002706E001A85A46C05D179903
:1015D00090476D1C7F1C4745F6DBE0030CD55B464E
:1015E0002146179A059800F09FF9054404E0302041
:1015F0005A46179990476D1C0099481E0090002983
:10160000F5DC08E0029802995A460078491C0291DC
:10161000179990476D1CBAF10001AAF1010AF1DC9B
:1016200065E10000092801003031323334353637A6
:10163000383961626364656600000000303132331E
:1016400034353637383941424344454600000000BE
:1016500000F058F90544761C307800287FF4ECAD92
:1016600019B02846BDE8F08F620700D4062709F1BB
:10167000070222F0070CFCE80223E14603F00048D1
:101680005FEA080C02D00FF2702C0DE05FEA045CF8
:1016900002D50FF2682C07E05FEAC47C02D00FF29B
:1016A000602C01E0AFF2700C4FF0FF3823F00043E4
:1016B000CDF850C065280CD006DC452809D0462856
:1016C0001DD047283DD13DE0662818D067287ED13F
:1016D00038E00021112F01DB112000E0781CCDE95A
:1016E000000106A90EA8FFF7DDFCDDE90F010E9A47
:1016F00003910021009207F1010A04914DE04FF09F
:1017000000400097CDE9011006A90EA8FFF7CAFC1A
:10171000DDE90F0203920E9B11990022DDF80CA067
:101720000093049211B9791C00EB010AB7EB0A008F
:1017300004D4C0F1FF3007F1010A0490AAEB0700BE
:10174000019044E0012F00DA01270021112F01DD73
:10175000112000E03846CDE9000106A90EA8FFF7E8
:10176000A1FCDDE90F010E9A039100210491009282
:10177000BA4621070CD40399514500DA8A46BAF1DA
:10178000010F05DD009AAAF10101515C302908D052
:10179000B84202DA10F1040F06DA0121CDE9011096
:1017A00015E0AAF10101E9E7002805DC04990144EC
:1017B0000491AAEB000102E0411C514500DD8A467C
:1017C0000499401A401C01904FF0004002902007FD
:1017D00004D40198504501DBCDF8048000208DF839
:1017E0004F0002980DF14F07B0F1004F25D02B208C
:1017F0000E9002984FF0020800280CDA4042029046
:101800002D200E9007E00A210298FEF716FE3031D7
:10181000029007F8011DB8F10001A8F10108F2DCFF
:1018200002980028EFD1791E0E980870307800F0E9
:10183000200040F0450007F8020D12A8C01B00F17F
:1018400007081498007800B1012000EB0A01019804
:1018500001EBE07105984144401A401E0590E003F9
:1018600006D45B462146179A059800F05DF80544BA
:101870001498007818B15A46179990476D1CE003E8
:1018800024D55B462146179A059800F04DF805448B
:101890001CE00498002807DBDDE90301884203DD32
:1018A0000098405C179901E0179930205A469047FC
:1018B000049805F10105401C04900198401E019018
:1018C00004D12E205A46179990476D1CBAF1000199
:1018D000AAF1010ADDDC05E017F8010B5A46179959
:1018E00090476D1CB8F10001A8F10108F4DC5B46DB
:1018F0002146179A0598ABE62D0000002B0000004A
:10190000200000002DE9F041044600251E46174640
:10191000880404D405E039462020B0476D1C641EBD
:10192000F9D52846BDE8F0812DE9F04104460025AF
:101930001E469046C80301D5302700E020278804C2
:1019400004D505E041463846B0476D1C641EF9D504
:101950002846BDE8F0810A68531C0B601070704780
:1019600010B50446416050002070207A332140F0C9
:1019700004002072204600F043F83221204600F097
:101980003FF80520FEF7A8FF0121204600F038F8B7
:101990000520FEF7A1FF0C21204600F031F80520BC
:1019A000FEF79AFF0221204600F02AF80520FEF7F4
:1019B00093FF8021204600F023F8204600F074F8C1
:1019C0000820607210BD0FB470B586B005460CAA31
:1019D00068460B99FFF744FB00246E4605E0315D35
:1019E000284600F02DF8641CE4B26846FEF708FCB7
:1019F000A04201D9102CF2D306B070BC5DF814FBE4
:101A00001CB501F0F002437A42F004041C438DF847
:101A1000044013438DF805300901427A41F0040374
:101A20001A438DF80620427A04230A438DF80720D2
:101A3000642100910178406801AAFEF765FF1CBD92
:101A40001CB501F0F002437A42F005041C4342F059
:101A500001028DF8044013438DF805300901427AE4
:101A600041F005031A438DF80620427A41F0010146
:101A70000A438DF80720642100910178406804230F
:101A800001AAFEF741FF1CBD08B506A31B68009321
:101A90001DF801101144C9B241F08001FFF7B0FFF9
:101AA00008BD000000401454017A21F001010172C8
:101AB00041F00801FFF7A4BF1CB53049272201F10E
:101AC0005400FFF74DFF2E490420CDE9000100230B
:101AD00080222CA12D4800F0EBFE29490120091D90
:101AE000CDE900010023802229A12B4800F0E0FE6F
:101AF000234902200831CDE900010023802227A1DB
:101B0000284800F0D5FE1E4903200C31CDE9000124
:101B10000023802221A1244800F0CAFE1849002099
:101B20001031CDE900010346802220A1214800F0B8
:101B3000BFFE00220221012000F0CCFC104C00224C
:101B4000083C0221E061012000F0C4FC2062002278
:101B50000121022000F0BEFC6062A11C0220FEF701
:101B6000E5FDFEF797FEFFF759FA0320FFF7ECF9C2
:101B70000220FFF7E9F900F01FF8FEE7A4000020BB
:101B80000C0000205461736B203000006D0E0008C3
:101B90005461736B30300000E90E00085461736BC0
:101BA0003031000061080008CD0B00085461736BF0
:101BB00031000000C50E000810B500F0CBFB00207E
:101BC00010BD00002DE9F041184C0F46054666692E
:101BD0002068001D00F0AEFA38B9206890F82C108B
:101BE00001208840A1698143A161681C07D137B1F8
:101BF0002168BDE8F0410E48091D00F0DFBA2068F9
:101C00003544B5424560216805D2A068BDE8F04181
:101C1000091D00F0BBBA6068091D00F0B7FA206B1F
:101C2000854200D22563BDE8F08100004400002019
:101C30007C0400202DE9F041054600F0CBFA2E4C43
:101C40002069401C206120682C4F10B1E06940B32E
:101C50002DE025602069012829D1002606EB8600A9
:101C600007EB800000F084FA761C072EF6D3234899
:101C70008C3000F07DFA2148A03000F079FA1F483E
:101C8000B43000F075FA1D48C83000F071FA1B48F6
:101C9000DC3000F06DFA19488C3060601430A060C0
:101CA00005E02068E96AC06A884200D82560E06AD9
:101CB000401CE062E96A0120A26988401043A061EB
:101CC00001EB810007EB8000291D00F077FA00F09E
:101CD000A1FAE06900280CD02068E96AC06A88424D
:101CE00007D207494FF080500860BFF34F8FBFF312
:101CF0006F8FBDE8F081000044000020A0030020A9
:101D000004ED00E030B4026C0B46002A0BD0C16831
:101D10001144C1604468A14201D30168C16030BC74
:101D20001846FEF75BBA30BC70472DE9F041856B71
:101D3000174604460026026C82B1C7B1E068FEF780
:101D40004DFAE168206C091AE1602268914202D2E2
:101D50006168081AE060022F16D017E02068A8B961
:101D6000606800F06FFE0646002060600EE0A0682C
:101D7000FEF734FA216CA0680844A06061688842CC
:101D800004D32068A06001E005B16D1E6D1CA56341
:101D90003046BDE8F08110B5044690F8510058B1C6
:101DA00001280CD002280FD0502080F31188BFF3F7
:101DB0004F8FBFF36F8FFEE7206B00F03FFA204696
:101DC000BDE8104000F03ABA10BD000010484FF4D2
:101DD0004061420706D0C01D0D4920F00700411A9E
:101DE000C1F540610B4A00230144C2E900030839F0
:101DF000103A21F0070111604B600B600B1AC0E92B
:101E0000001393604FF000405360D06070470000B3
:101E10009004002090000020144E154CA6F1C80735
:101E20004FF08058DFF84C9012E000BF00F0D2F97C
:101E3000F068C568281D00F07DF92069401E20610A
:101E4000E068401EE06000F0E5F92846FFF7A3FFD8
:101E5000E0680028EAD138680128F9D9C9F800807B
:101E6000BFF34F8FBFF36F8FF2E7000068040020CD
:101E70004400002004ED00E00346009829B1026010
:101E8000C0E90F31012100F049BB0060F8E72DE9FE
:101E9000F0479A46DDE9098481466FF00303206B21
:101EA00003EB82021044089D20F00706700707D05C
:101EB000502080F31188BFF34F8FBFF36F8FFEE781
:101EC00023180A5C83F834200A5C12B1401C1028E5
:101ED000F6D3002784F84370072D00D30625E5626A
:101EE000C4E91157201D00F04EF904F1180000F06C
:101EF0004AF92461C5F107006462A061E76484F8CF
:101F0000507052464946304600F002F92060B8F160
:101F1000000F01D0C8F80040BDE8F08730B5114986
:101F200000E011460A688242FBD34B685C18844289
:101F300003D1406818444860084643681C1894421E
:101F400009D1084C103C2468A24209D052681A44B6
:101F500042600A6812680260814200D0086030BDA9
:101F60000460F9E79000002010B5044600F032F953
:101F7000A06B28B15FF0000400F04CF9204610BDC2
:101F80000124F9E706484168096829B14168C96830
:101F9000C9684968016370474FF0FF31FAE70000F4
:101FA0004400002008484068401C4FF0500080F377
:101FB000118804D0BFF34F8FBFF36F8FFEE7BFF3DD
:101FC0004F8FBFF36F8FFEE7980000202DE9F0419F
:101FD000044600F0FFF894F9455004F1240609E0A6
:101FE000606A48B1304600F079FD08B100F094F91C
:101FF0006D1E6DB2002DF3DC4FF0FF3684F84560A6
:1020000000F008F900F0E6F894F9445004F11007E4
:1020100009E0206948B1384600F060FD08B100F0E1
:102020007BF96D1E6DB2002DF3DC84F84460BDE8D1
:10203000F04100F0EFB800002DE9F041054600271F
:1020400000F0BEF9314E306808B9FFF7BFFEF06806
:1020500005424BD1C5B3083568070ED005F007001F
:10206000C0F108000544680707D0502080F31188AC
:10207000BFF34F8FBFF36F8FFEE72DB370688542BC
:1020800034D82248103001460C6801E020460C4646
:102090006168A94202D221680029F7D131688C42D7
:1020A00024D007682168016060680837411B102947
:1020B0000FD96019420708D0502080F31188BFF370
:1020C0004F8FBFF36F8FFEE710E041606560FFF751
:1020D00025FF61687068401A7060B268904200D253
:1020E000B060F06801430020C4E9000100F030FD59
:1020F000780707D0502080F31188BFF34F8FBFF3CC
:102100006F8FFEE73846BDE8F081000080000020B8
:1021100010B5031F4FF080741C601B1F21F00101DC
:102120001960191F024B0B60143940380A6010BD4A
:10213000A51F0008D0E9013201699A60D0E90123A6
:102140005A604A68824201D182684A600022026174
:102150000868401E0860086870470000034B036071
:1021600003F15400086080201060704704010020D3
:1021700000F108014FF0FF32C0E90112C1600161B6
:1021800000210160704700210161704730B50B6884
:102190005A1C02D000F1080202E0026904E0224663
:1021A000546825689D42FAD953684B6099608A60EB
:1021B000516008610168491C016030BD42684A6095
:1021C00093688B6093685960916008610168491C4D
:1021D00001607047502080F31188BFF34F8FBFF329
:1021E0006F8F0A494868401C486001280CD1084894
:1021F000006810F0FF0F07D0502080F31188BFF364
:102200004F8FBFF36F8FFEE77047000098000020EC
:1022100004ED00E00849486828B1401E486001D13B
:1022200080F311887047502080F31188BFF34F8FDF
:10223000BFF36F8FFEE700009800002070B5002804
:1022400027D0144DA0F108046168E868014207D165
:10225000502080F31188BFF34F8FBFF36F8FFEE7DD
:1022600022683AB1502080F31188BFF34F8FBFF33B
:102270006F8FFEE78143616000F0A2F860686968D3
:10228000084468602046FFF749FEBDE8704000F052
:102290005FBC70BD800000204FF0E0200021016194
:1022A000816105494FF47A720968B1FBF2F1491E68
:1022B00041610721016170474000002010B5020014
:1022C00014D00F48806B38B1502080F31188BFF3D1
:1022D0004F8FBFF36F8FFEE700F072F800211046BA
:1022E000FFF770FC00F034FC002807D105494FF0DF
:1022F00080500860BFF34F8FBFF36F8F10BD000099
:102300004400002004ED00E002498A6A0260496945
:102310004160704744000020014901204862704735
:102320004400002010B50C4650B109490968183125
:10233000FFF72CFF2046BDE810400121FFF742BC0B
:10234000502080F31188BFF34F8FBFF36F8FFEE7EC
:102350004400002010B586B00024039405AA04A907
:1023600003A80494FFF7FAFEDDE903010094CDE928
:10237000011000230EA11048059A00F0C6FA0F497B
:102380000028486311D0502080F31188BFF34F8F8D
:10239000BFF36F8F4FF0FF3008630120C8614C61BD
:1023A00006B0BDE8104000F041B806B010BD000016
:1023B00049444C4500000000191E0008440000205C
:1023C0000248816B491C8163704700004400002073
:1023D0001448816B11B101214162704700214162B3
:1023E0008169B1FA81F1C1F11F0101EB81020E494E
:1023F00051F822306BB101EB820101F108034A6808
:1024000052684A609A4201D152684A60D1680160BC
:102410007047502080F31188BFF34F8FBFF36F8F49
:10242000FEE7000044000020A00300201CB5264960
:1024300008780190FF20087008788DF800009DF85A
:1024400000009DF8002000F0F000904207D05020DE
:1024500080F31188BFF34F8FBFF36F8FFEE79DF8B6
:1024600000001A4B00F0500018700720986005E03B
:102470009DF8002052008DF80020401E9DF800209D
:102480001206F5D49860032807D0502080F31188F5
:10249000BFF34F8FBFF36F8FFEE74FF4407098602C
:1024A000019808700A48016841F4700101600168F0
:1024B00041F070410160FFF7EFFE00205860FDF72A
:1024C00031FE00201CBD000000E400E09800002068
:1024D00020ED00E0F8B517460E46050014D0DEB139
:1024E00005FB06F04830FFF7A7FD04000AD00020E6
:1024F00084F8460004F148023B46314628460094E1
:10250000FFF7BAFC2046F8BD502080F31188BFF3D6
:102510004F8FBFF36F8FFEE70020E3E770B50D46E6
:10252000040025D0FFF756FED4E90F20216802FBF6
:10253000001161600021A1632168A1600A46D4E90D
:102540000F01401E00FB0121E16021464FF0FF30EA
:1025500001F8440F487004F110008DB1FFF708FE38
:1025600004F12400FFF704FEFFF754FE012070BDC4
:10257000502080F31188BFF34F8FBFF36F8FFEE7BA
:1025800021690029F0D000F0A9FA0028ECD0044914
:102590004FF080500860BFF34F8FBFF36F8FE3E7BA
:1025A00004ED00E02DE9FF4782B01D468A464FF05A
:1025B0000008040003D0BAF1000F08D011E0502049
:1025C00080F31188BFF34F8FBFF36F8FFEE7206C4E
:1025D00038B1502080F31188BFF34F8FBFF36F8F56
:1025E000FEE7022D0AD1E06B012807D0502080F3CE
:1025F0001188BFF34F8FBFF36F8FFEE700F0B0F984
:102600003F4F4FF000094FF0805648B9049838B159
:10261000502080F31188BFF34F8FBFF36F8FFEE719
:10262000FFF7D8FDA06BE16B884207D3022D05D0E0
:102630000498D0B1B8F1000F1AD01EE02A465146D6
:102640002046FFF772FB616A19B104F1240000F023
:1026500045FA20B13E60BFF34F8FBFF36F8FFFF796
:10266000D9FD012006B0BDE8F087FFF7D3FD22E0D9
:102670006846FFF749FE4FF00108FFF7CBFDFFF773
:102680009FFEFFF7A7FD94F94400401C01D184F898
:10269000449094F94500401C01D184F84590FFF71F
:1026A000B9FD04A9684600F0C9F830B12046FFF72B
:1026B0008DFC00F04DFA0020D4E7FFF78BFDA06BF6
:1026C000E16B884213D1FFF7A5FD04F110000499D6
:1026D000FFF728FE2046FFF779FC00F039FA0028C2
:1026E0009ED13E60BFF34F8FBFF36F8F98E7FFF728
:1026F00091FD2046FFF76AFC00F02AFA90E70000FF
:1027000004ED00E02DE9F747002683B08A46040077
:1027100003D0BAF1000F08D011E0502080F31188E7
:10272000BFF34F8FBFF36F8FFEE7206C38B150209F
:1027300080F31188BFF34F8FBFF36F8FFEE700F078
:102740000FF9DFF8F4804FF000094FF0805748B9D7
:10275000059838B1502080F31188BFF34F8FBFF335
:102760006F8FFEE7FFF736FDA56BC5B151462046DA
:10277000FFF7C8FA6D1EA563206950B104F110007F
:1027800000F0ACF928B1C8F80070BFF34F8FBFF369
:102790006F8FFFF73FFD012006B0BDE8F087059879
:1027A00008B11EB106E0FFF735FD27E06846FFF7E8
:1027B000ABFD0126FFF72EFDFFF702FEFFF70AFD36
:1027C00094F94400401C01D184F8449094F94500E8
:1027D000401C01D184F84590FFF71CFD05A968460F
:1027E00000F02CF8002820460AD0FFF7EFFB00F09D
:1027F000AFF92046FFF7B8FB0028B3D00020CBE7A5
:10280000FFF7B2FB90B104F124000599FFF78AFDB0
:102810002046FFF7DBFB00F09BF90028A2D1C8F8A7
:102820000070BFF34F8FBFF36F8F9BE72046FFF71A
:10283000CDFB00F08DF995E704ED00E02DE9F041C6
:102840000C46050011D0C4B1FFF7C4FC174B5A6900
:102850006E682068911B471C17D02F689B6A9F42A7
:1028600019D0964217D8012410E0502080F3118827
:10287000BFF34F8FBFF36F8FFEE7502080F31188B7
:10288000BFF34F8FBFF36F8FFEE70024FFF7C2FC4B
:102890002046BDE8F081884205D9401A20602846CC
:1028A000FFF732FDF1E700202060DCE74400002064
:1028B0002DE9FF5F8346DDE90E87994616468A4675
:1028C0009000FFF7B9FB05001CD05420FFF7B4FBC4
:1028D000040014D00020256384F85100CDE90240A3
:1028E000CDE900874B46324651465846FFF7CFFAAE
:1028F0002046FFF79FF9012004B0BDE8F09F28466D
:10290000FFF79CFC4FF0FF30F6E7F0B585B0DDE94E
:102910000B640A9DA6B1DCB15427009726630226FA
:1029200084F85160002604AFCDE90246CDE9005796
:10293000FFF7ADFA2046FFF77DF9049805B0F0BD2A
:10294000502080F31188BFF34F8FBFF36F8FFEE7E6
:10295000502080F31188BFF34F8FBFF36F8FFEE7D6
:102960000548C16919B1806B18B10020704701207A
:102970007047022070470000440000202DE9F0411C
:102980002E4C0027A06B40B1206A401C2062606A78
:1029900000B101273846BDE8F0816669761C6661A2
:1029A00013D16068006838B1502080F31188BFF3FC
:1029B0004F8FBFF36F8FFEE76068A1686160A06012
:1029C000A06A401CA062FFF7DDFA206BDFF8708080
:1029D000864209D36068006880B16068C068C568D5
:1029E000686886420DD220632068C06A00EB8001CF
:1029F00058F821000128CAD90127C8E74FF0FF3055
:102A0000F1E7281DFFF796FBA86A18B105F1180039
:102A1000FFF790FBE86A0121A26981401143A1619F
:102A200000EB800108EB8100291DFFF7C7FBE86A76
:102A30002168C96A8842CDD30127CBE74400002032
:102A4000A003002070B504004FF0000140D0214DDC
:102A50002868844207D0502080F31188BFF34F8F3D
:102A6000BFF36F8FFEE7A06C38B1401EA064636CAB
:102A7000E26A9A422CD040B12AE0502080F31188BB
:102A8000BFF34F8FBFF36F8FFEE7201DFFF752FBA1
:102A9000114A012150B9E06A00EB800352F823305B
:102AA00023B9AB6901FA00F08343AB61606CE0626B
:102AB000C0F10700A061E06AAB6981401943A961D8
:102AC00000EB800002EB8000211DFFF777FB012166
:102AD000084670BD44000020A00300202DE9F0410D
:102AE000C068C468ACB104F118000746FFF722FBC8
:102AF000154DA86B0126A0B139461448FFF75EFBBF
:102B0000E06A2968C96A88421CD901206E62BDE862
:102B1000F081502080F31188BFF34F8FBFF36F8F88
:102B2000FEE7201DFFF706FBE16AAA6906FA01F03D
:102B30001043A86101EB81000449B43901EB800026
:102B4000211DDBE70020E2E74400002054040020C0
:102B50002DE9F0472C4D00242746A86B38B1FFF72C
:102B600039FBA86B401EA863A86B40B146E050201B
:102B700080F31188BFF34F8FBFF36F8FFEE7296992
:102B8000224E0120D1B3A6F1B40980463068E8B1E5
:102B9000F068C46804F11800FFF7CCFA201DFFF7B5
:102BA000C9FAE06AAA6908FA00F11143A96100EBC9
:102BB000800109EB8100211DFFF700FBE06A296815
:102BC000C96A8842E2D3C5F82480DFE70CB1FFF779
:102BD000D9F92C6A44B14646FFF7D0FE00B16E62C7
:102BE000641EF9D100202862686A38B108490127BB
:102BF00038070860BFF34F8FBFF36F8FFFF70AFBF3
:102C00003846BDE8F087000044000020540400204E
:102C100004ED00E0342C000800000020A4000000B7
:102C200084100008D82C0008A4000020EC13000039
:102C300094100008000000000000030400000000E1
:102C40000000000000000000000000000000000084
:102C50000000000000000000000000000000000074
:102C60000000000000000000010000001000000053
:102C7000000000000024F40000000000000000003C
:102C80000000000000000000000000000000000044
:102C90000000000000000000000000000000000034
:102CA0000000000000000000000000000000000024
:102CB0000000000000000000000000000000000014
:102CC0000000000000000000000000000000000004
:082CD000AAAAAAAA0000000054
:04000005080000ED02
:00000001FF
